:100000000C9458090C9475090C9475090C94750995
:100010000C9475090C9475090C9475090C94750968
:100020000C9475090C9475090C945A2A0C94272B7E
:100030000C943F240C9475090C9475090C94750963
:100040000C9475090C9475090C9475090C94750938
:100050000C9475090C94B6240C9475090C947509CC
:100060000C9475090C9481250C945E250C947509EB
:100070000C9475090C9475090C9475090C94750908
:100080000C9475090C9475090C9475090C947509F8
:100090000C9475090C9475090C9475090C947509E8
:1000A0000C9475090C9475090C94750935001E00A3
:1000B0001F0020002100220029002F5223002400CD
:1000C0002500260027002D002B0014001A00080030
:1000D00015001700284B284A0D0018000C001200CC
:1000E000380233024A4C04001600070009000A00D7
:1000F000005204520B001C000E000F0034004D4C47
:10010000E1001D001B00060019000500015203520A
:1001100011001000360037001300E500E300650011
:100120000D524C00E0002C00E200E4002A00E00444
:100130005000510052004F0001001E001F0020001F
:1001400021002200010001002300240025002600D8
:1001500027000100010014001A0008001500170014
:10016000010001000D0018000C0012003800010011
:100170004A4E04001600070009000A0001000100B1
:100180000B001C000E000F003400010001001D00D8
:100190001B000600190005000100010011001000FD
:1001A00036003700130001000100010001000100CA
:1001B0000100010001000100010001000100010037
:1001C0000100010001000100010001000100010027
:1001D0000100010001000100010001000100010017
:1001E0000100010001000100010001000100010007
:1001F00001000100010001000100010001000100F7
:1002000001000100010001000100010001000100E6
:1002100001000100010001000100010001000100D6
:1002200001000100010001000100010001000100C6
:1002300001000100010001000100010001000100B6
:1002400001000100010001000100010001000100A6
:1002500001001E001F0020002100220001000100FB
:1002600023002400250026002700010001001400BF
:1002700008001A0015001700010001000D00180009
:100280000C001200380001004A4E0900040016005C
:1002900007000A00010001000B001C000E000F0007
:1002A0003400010001001D001B00060019000500BC
:1002B000010001001100100036003700130001009A
:1002C0000100010001000100010001000100010026
:1002D0000100010001000100010001000100010016
:1002E0000100010001000100010001000100010006
:1002F00001000100010001000100010001000100F6
:1006300001000100E200430044004500E000010029
:1006400001000100010001000100010001000100A2
:10065000E200400041004200E00001000100010012
:10066000010001000100010001000100E2003D0065
:100670003E003F00E0000100010001000100010018
:100680000100010001000100E2003A003B003C00D3
:10069000E000010001000100010001000100010073
:1006A0000100010001000100010001000100010042
:1006B0000100E000430044004500E20001000100A9
:1006C0000100010001000100010001000100E00043
:1006D000400041004200E200010001000100010071
:1006E00001000100010001000100E0003D003E00AA
:1006F0003F00E200010001000100010001000100D3
:10070000010001000100E0003A003B003C00E20073
:1007100001000100010001000100010001000100D1
:1007200001000100010001000100010001000100C1
:10073000010001000100010001000100010024028C
:100740001F02550031003102010001000100D900F3
:100750003E00DA000100010023022D002F022602D4
:10076000270230020100010001004A0052004D0042
:100770004B000100010057002F0036023702300005
:10078000010001000100500051004F004E00010027
:100790000100210222022D022E0020020100010090
:1007A0000100010001000100010001000100010041
:1007B00001003900010001000100010001000100F9
:1007C00001000100010001000100010056003E008F
:1007D00057002C00010001002B13B6003E00B700AB
:1007E0002B01010001004A004D0052004B0017137D
:1007F000010001004B004A0052004D004B00010077
:1008000001002B132B0151004E001A0101000100C1
:100810004E00500051004F004E0001000100B60094
:10082000B70050004F000900010001000100010065
:1008300001000100010001000100010001000100B0
:1008400001000100010001000100010001000100A0
:10085000010001002D0027002600250024002300B0
:100860000100010001000100010001000100010080
:100870002302130012000C0018000D0001000100FB
:10088000010001000100010001000100010034002D
:100890000F000E001C000B00010001000100010010
:1008A000010001000100010001003800370036009E
:1008B0001000110001000100010001000100010011
:1008C0000100010001000100010001000100010020
:1008D0000100010001000100010001000100010010
:1008E000005201520252035204520552405201007A
:1008F0004152425243524452455240520100065224
:100900000752085209520A520100007C46524752CF
:10091000485249524A52405201000B520C520D5259
:100920000E520F52010001004B524C524D524E528A
:100930004F52010001000000000000000000000014
:1009400001000100000000000000000000000100A4
:10095000010001000100010001000100010001008F
:100960000100010001000100010001004445425561
:10097000473A2064697361626C65642E0A004445DD
:100980004255473A20656E61626C65642E0A006CC0
:1009900065645F7461736B3A20253032580A004FEA
:1009A0006E6573686F743A2074696D656F75740A4B
:1009B000004F6E6573686F743A2061637469766581
:1009C0003A2025640A000A002530313662003A20B8
:1009D0000025303258000A722F6320303132333410
:1009E00035363738394142434445460A00313A09E1
:1009F00064656C6179282A31306D73293A20257538
:100A00000A323A09696E74657276616C286D7329D1
:100A10003A2025750A333A096D61785F7370656510
:100A2000643A2025750A343A0974696D655F746FFC
:100A30005F6D61783A2025750A353A0977686565F2
:100A40006C5F6D61785F73706565643A2025750A27
:100A5000363A09776865656C5F74696D655F746FB8
:100A60005F6D61783A2025750A00703A09707269E5
:100A70006E742076616C7565730A643A09736574E7
:100A80002064656661756C74730A75703A092B3160
:100A90000A646E3A092D310A6C743A092B31300A16
:100AA00072743A092D31300A4553432F713A097156
:100AB0007569740A0A7370656564203D2064656C0D
:100AC0007461202A206D61785F7370656564202AE7
:100AD0002028726570656174202F2074696D655FD0
:100AE000746F5F6D6178290A776865726520646547
:100AF0006C74613A20637572736F723D25642C20AB
:100B0000776865656C3D25640A5365652068747473
:100B1000703A2F2F656E2E77696B69706564696115
:100B20002E6F72672F77696B692F4D6F7573655FD5
:100B30006B6579730A004D3E20004D25753A25738B
:100B40003E20003F0A003D2025750A003F0A006450
:100B5000656661756C74730A0025750A003F0A00AA
:100B60000A092D2056616C756573202D0A00710AE3
:100B7000000A092D204D6F7573656B6579202D0A6C
:100B8000003F00433E20004C25640A000A092D2046
:100B9000537461747573202D0A686F73745F6B658D
:100BA00079626F6172645F6C65647328293A2025ED
:100BB0003032580A6B6579626F6172645F70726F70
:100BC000746F636F6C3A20253032580A6B65796216
:100BD0006F6172645F69646C653A20253032580A2F
:100BE0006B65796D61705F636F6E6669672E6E6BA2
:100BF000726F3A20253032580A74696D65725F72DF
:100C0000656164333228293A202530386C580A004F
:100C10002573000A092D20436F6E736F6C65202DBC
:100C20000A4553432F713A09717569740A6D3A097F
:100C30006D6F7573656B65790A000A092D204D612A
:100C4000676963202D0A443A094465627567204D3F
:100C500065737361676520546F67676C650A583AFE
:100C6000094D6174726978204465627567204D6F23
:100C7000646520546F67676C65202D2053686F771B
:100C8000206B65797072657373657320696E206D72
:100C9000617472697820677269640A4B3A094B651E
:100CA00079626F61726420446562756720546F6772
:100CB000676C65202D2053686F77206B65797072A3
:100CC000657373207265706F72740A4D3A094465DA
:100CD000627567204D6F75736520546F67676C652B
:100CE0000A563A0956657273696F6E0A533A095388
:100CF00074617475730A433A094163746976617467
:100D00006520436F6E736F6C65204D6F64650A4696
:100D1000312D4631303A0953776974636820746F16
:100D2000204C6179657220302D39202846313020E1
:100D30003D204C30290A302D393A095377697463C4
:100D40006820746F204C6179657220302D390A4714
:100D5000524156453A0953776974636820746F208D
:100D60004C6179657220302028616C7465726E6107
:100D70007465290A423A094A756D7020746F2042E1
:100D80006F6F746C6F616465720A4553433A094A28
:100D9000756D7020746F20426F6F746C6F61646545
:100DA000722028616C7465726E617465290A453A17
:100DB000095072696E7420454550524F4D2053655D
:100DC0007474696E67730A4241434B535041434503
:100DD0003A09436C65617220454550524F4D0A4EA9
:100DE0003A094E4B524F20546F67676C650A006B8F
:100DF00065796D61705F636F6E6669672E7261778A
:100E00003A20253032580A2E737761705F636F6E17
:100E100074726F6C5F636170736C6F636B3A2025E3
:100E2000750A2E636170736C6F636B5F746F5F63C1
:100E30006F6E74726F6C3A2025750A2E737761702D
:100E40005F6C63746C5F6C6775693A2025750A2E58
:100E5000737761705F7263746C5F726775693A2053
:100E600025750A2E737761705F6C616C745F6C67B7
:100E700075693A2025750A2E737761705F72616C0F
:100E8000745F726775693A2025750A2E6E6F5F6709
:100E900075693A2025750A2E737761705F677261F4
:100EA00076655F6573633A2025750A2E73776170E6
:100EB0005F6261636B736C6173685F6261636B73C4
:100EC000706163653A2025750A2E6E6B726F3A2049
:100ED00025750A2E737761705F6573636170655F56
:100EE000636170736C6F636B3A2025750A006465EB
:100EF0006275675F636F6E6669672E7261773A200D
:100F0000253032580A2E656E61626C653A2025756F
:100F10000A2E6D61747269783A2025750A2E6B6508
:100F200079626F6172643A2025750A2E6D6F757350
:100F3000653A2025750A006565636F6E6669673AD4
:100F40000A64656661756C745F6C617965723A20DC
:100F5000256C750A003F004E4B524F3A206F666673
:100F60000A004E4B524F3A206F6E0A000A6D6F75A1
:100F700073653A206F66660A000A6D6F7573653A8D
:100F8000206F6E0A000A6B6579626F6172643A20A5
:100F90006F66660A000A6B6579626F6172643A2057
:100FA0006F6E0A000A6D61747269783A206F666626
:100FB0000A000A6D61747269783A206F6E0A000A3D
:100FC00064656275673A206F66660A000A64656246
:100FD00075673A206F6E0A000A0A4A756D70696E6D
:100FE0006720746F20626F6F746C6F616465722E1E
:100FF0002E2E2000433E2000436C656172696E67AF
:1010000020454550524F4D0A00290A002575002FF2
:10101000002575005D28002564002000256400205F
:101020000025640020002564007C00253032580033
:101030006D6F7573656B6579205B62746E7C78206B
:1010400079207620685D287265702F61636C293A7B
:10105000205B000A002530325820006E6B726F5FF3
:101060007265706F72743A2025303258207C2000EF
:101070000A002530325820006B6579626F61726416
:101080005F7265706F72743A2025303258207C2070
:101090000064656C5F6B65795F6269743A206361B7
:1010A0006E27742064656C3A20253032580A00613E
:1010B00064645F6B65795F6269743A2063616E276F
:1010C00074206164643A20253032580A00737573C5
:1010D00070656E64696E67206B6579626F617264BA
:1010E0000D0A005B575D005B535D005B525D005B6A
:1010F000445D005B435D001E035200650064006FA9
:10110000007800200057006900720065006C0065DF
:10111000007300730000001E034D00610074007432
:1011200000690061002000440061006C0020004262
:101130000065006E00000004030904090254000366
:101140000100A0FA090400000103010100092111B6
:101150000100012244000705810308000109040180
:1011600000010300000009211101000122B600075F
:1011700005820320000109040200010300000009A8
:10118000211101000122150007058303200001122F
:1011900001000200000008444D5752010001020006
:1011A000010631FF0974A1010975150026FF00959C
:1011B0002075088102C005010902A101850209010B
:1011C000A1000509190129081500250195087501D7
:1011D00081020501093009311581257F95027508C5
:1011E000810609381581257F950175088106050C52
:1011F0000A38021581257F950175088106C0C00552
:10120000010980A101850319012AB700150126B73C
:1012100000950175108100C0050C0901A10185042C
:1012200019012AA002150126A0029501751081005E
:10123000C005010906A1018506050719E029E71582
:101240000025019508750181020507190029EF1590
:1012500000250195F0750181020508190129059500
:101260000575019102950175039101C005010906FB
:10127000A101050719E029E7150025019508750169
:1012800081029501750881010507190029FF1500E4
:1012900026FF009506750881000508190129051526
:1012A000002501950575019102950175039101C015
:1012B00011241FBECFEFDAE0DEBFCDBF12E0A0E009
:1012C000B1E0E6E4FCE502C005900D92A43DB10753
:1012D000D9F725E0A4EDB2E001C01D92AA34B2070F
:1012E000E1F70E943E190C94A32D0C940000FF938B
:1012F000EF93E091D402F091D502309709F009956F
:10130000EF91FF910895FC018591803011F0EFDF9E
:10131000FBCF0895FF27E0E230E247FF0CC0419584
:1013200097FF09C0EDE26095709580959095611DDD
:10133000711D811D911D27FF02C0219530E350E2F0
:10134000AA27660F771F881F991FAA1FA41710F0DE
:10135000A41B63955A95A9F7AA3008F0A95FA05D70
:10136000AF93F395611571058105910541F7ED3254
:1013700011F4EF93F395F21718F43F93F395FBCF25
:101380008F91B5DFFA95E1F70895E991F99185918B
:10139000803021F0853219F0AADFF9CF089520E0DE
:1013A000E89455915532C1F3503311F46894559136
:1013B0005A3348F4505390F3220F022E220F220F7B
:1013C000200D250FF4CF0EF4219589919991533674
:1013D00019F3533729F1533559F1BC01882799275F
:1013E000E8945C3621F4899199916894559154362A
:1013F00039F446EF7EF077FF0DC08FEF9FEF0AC004
:1014000055374AE039F0583540E121F0523642E094
:1014100009F00895FF93EF937DDFEF91FF91B7CF30
:10142000FF93EF93FC0181918030B9F360DFFBCF34
:10143000FF93EF9368DFF1CFDF93CF93CDB7DEB7A4
:101440002596A3DFCF91DF91089560E472E48FE0E9
:1014500090E00C94F624ABE0B0E0E1E3FAE00C9409
:10146000092D4C0183E70E941B258E010F5F1F4F42
:101470008BE0D8011D928A95E9F778015E01BCE006
:10148000AB0EB11C6801412C512C32010E94482541
:101490008823B1F180E1481687E25806610471049F
:1014A000E0F50E943425D6018C93FFEFCF1ADF0AB6
:1014B000CA14DB0459F78B85803E91F5F401065F71
:1014C0001F4F80E0D70111962C91B0E82B9F90011F
:1014D0001124D7019C91292B419151914217530717
:1014E00009F081E0DF0112972D933C93B2E0EB0EFF
:1014F000F11C0E151F0531F72B96E0E10C94252DFC
:10150000EFEF4E1A5E0A6E0A7E0AF1E14F16F7E21D
:101510005F066104710408F4B9CFF6011082C5CFEB
:1015200080E0EACF509A519A849A859A589A599AAB
:101530008C9A8D9A08950E946D18F4CF8031B8F47A
:101540006530A8F44E3098F450E09EE0699F400D5D
:10155000511D1124FA0196E4899FE00DF11D11241B
:10156000EE0FFF1FE455FF4F85919491089581E0A0
:1015700090E00895E3CF089581E00895FDCF0895A8
:10158000FBCF089581E00895F7CF0895F5CF089532
:10159000FDCF089508950895FDCF08950895089505
:1015A000A6E0B0E0E6EDFAE00C94162D49835A83EC
:1015B0009E833091DB0289819A81311117C03E816F
:1015C000332389F0222379F07ED5182F682F898163
:1015D0009A8158D569817A81812F0E9405172696B4
:1015E000E3E00C94322D5FD5182FF4CF6CD56981D0
:1015F0007A81F3CFFC01262F408151816281738172
:1016000084819581CDCFCF93DF93EC0161E0F2DF50
:10161000BE01B4DF882349F061E0CE01EBDFBE01FB
:10162000AFDF8170DF91CF91089580E0FACF0F9303
:101630001F93CF93DF93EC0160E0DCDF8C01BE01F0
:10164000AADFBE01C801A8DFDF91CF911F910F91E2
:10165000089521E030E0A90102C0440F551F8A958A
:10166000E2F7CA0148C4CF93C82F81E090E00C2E66
:1016700002C0880F991F0A94E2F70E9409158C2F67
:10168000E8DFCF91089581E00895FDCF0895FBCF65
:101690000895CF93C82FE7D38C2FF7DF8C2FF7DF78
:1016A0002FEF84E39CE0215080409040E1F700C0A0
:1016B0000000CF91089581E0ECDF0C94DA2480E003
:1016C000E8DF0C94EB240F931F93CF93DF938C01EF
:1016D00061E090DFEC01B80157DF811106C080E0C6
:1016E000DF91CF911F910F910895B801CE0150DF86
:1016F0008823A9F3B801CE010E941021882379F331
:10170000B801CE010E94D11C882349F3B801CE0153
:101710000E94A91C882319F3B801CE010E94031866
:101720008823E9F2F8018581882369F0C330FCE75A
:10173000DF0789F158F4C130ECE7DE0771F1B0F44E
:10174000C115DC4789F0C8011DDFCACFCB35ECE7F6
:10175000DE0741F1CC35FCE7DF0709F1CA35DC478C
:1017600091F70E94D214EFCFA6DFB9CF9091B203C8
:10177000892F8E7F90FF81608093B20380FF08C025
:101780008EE799E09F938F9357DE0F900F90A7CF2E
:101790008CE699E0F7CF0E94011591DFA0CF0E945F
:1017A000CA14D1CF0E94D414CECFF8DE0E941624E2
:1017B0003AC03BD0F4DE0C941A24829590E09C0150
:1017C000220F331F220F331F2C7C959587959595FB
:1017D00087958373282B30E0C901880F991F8A7A77
:1017E000359527952575822B0895CF93DF93D92FB3
:1017F000E4DFC82F8D2FE1DF9C2FDF91CF9108957B
:1018000081E008950895CF93DF93D82FF9DFC82F93
:10181000882311F08D2FF6DF8C2FDF91CF91089563
:101820000895F1CF089580E0FCCF0E945F21F9CFA9
:10183000CF930E945F21C82F8091D6028C17F1F0C0
:10184000C093D6020E94AA246093D7027093D80254
:101850008093D9029093DA028091B203857085302B
:1018600059F41F92CF938FE899E09F938F93E4DD13
:101870000F900F900F900F908C2FD3DFCF91089582
:10188000ADE0B0E0E6E4FCE00C94172D4887598702
:101890006A877B878C879D8791115CD71F8286E042
:1018A000FE013896DE01119601900D928A95E1F7BE
:1018B0008091240582FF09C010D7882319F082E0A7
:1018C0000E949114F1D6811187D78D8181110CC0AE
:1018D00029813A814B815C816D817E818F8165D6C2
:1018E0002D96E2E00C94332DCE0101968CDE811111
:1018F000EFCFF6CFFC012481213019F48081918152
:1019000013C40895662321F00E942D1E0C94F81E26
:101910000E947F1EFBCFCF93C82F8823B1F08CEF9E
:101920008C0F813AA0F48C2F0E944E1C81110DC0A7
:101930008C2F0E949622882321F08C2F0E945A23FC
:10194000C2D78C2F0E944323BED7CF91089580E247
:101950008C0F883040F4C77081E001C0880FCA95B1
:10196000EAF7DBD6F1CFEBE5EC0FE33040F4F0E043
:10197000E05BFE4F808190E00E942722E6CFE8E501
:10198000EC0FEB3150F4F0E0EE0FFF1FE65EFE4F80
:10199000808191810E944E22D8CF83E38C0F8331C6
:1019A000A0F661E08C2FAEDFD0CF882351F19CEF01
:1019B000980F913A18F40E945A2385C790E2980F25
:1019C000983048F4877091E001C0990F8A95EAF742
:1019D000892FA9D6F2CF9BE5980F933020F490E0A1
:1019E00080E00C94272298E5980F9B3120F490E03A
:1019F00080E00C944E2293E3980F933110F460E052
:101A000081CF08951F93CF93DF93182FEB0183DFCE
:101A1000209731F4812FC9DFDF91CF911F91089575
:101A20008FE99FE00197F1F700C000002197F0CF08
:101A300070E060E0893311F460E570E0E3CF882363
:101A400011F06BD640C70895882311F06CD63BC7C0
:101A50000895B0E0A0E0EFE2FDE00C94102D6C01E1
:101A6000D62FC72FFC011581068102950F704BD62A
:101A7000E82E8823E9F0E12E1123D1F08C2F807F0E
:101A8000803461F080E28D0F8830F8F08C2F807EFA
:101A9000803221F4D230C8F00023B9F080912405BF
:101AA00082FF13C082E03DD72ED691E0E82EE926D2
:101AB000BC2EB2949FE0B922FBE0FB1580F1EB2D28
:101AC000F0E0EB55F24D0C94012DE12CF1CF0C2FF1
:101AD0000F70C07F11F00295007F112381F0002369
:101AE00049F080E28D0F883010F0D11105C0802FB1
:101AF00014D6E9D68D2F40C0802F1FD6FACF8D2F58
:101B000054DF002361F080E28D0F883010F0D11196
:101B100003C0802F08D602C0802F15D6D4D6EB2D57
:101B2000E850FF0B349708F04CC10E945F2179DE2A
:101B3000CDB7DEB7E9E00C942C2D2C2F2F70F22EB0
:101B4000C07FC03219F0F29480EFF822DD2341F01B
:101B5000D13081F1112309F439C00023C9F0CACF73
:101B60008091240582FD10C0112341F0FF2019F05F
:101B70008F2DD3D5A8D680E0CEDED1CF80E015DF83
:101B8000FF2069F28F2DC6CF112359F0011103C038
:101B90008F2D55DFC4CF013009F0C1CF8F2DEED589
:101BA000BECF0111BCCF8F2D4FDF8F2DFDD58F2DD7
:101BB000D7D5B5CF112321F0063008F0B0CFE8CF4C
:101BC000053008F0ACCF8F2D3FDFA9CF0023D9F32C
:101BD000D93349F43FEF87EE93E031508040904095
:101BE000E1F700C000008D2FE0DE99CF8C2F8695A5
:101BF0008695837069F0813009F091CF8D2F9C2FED
:101C00009370111102C080E090E00E944E2287CFB5
:101C10008D2F9C2F9370111102C080E090E00E94E4
:101C200027227DCF612F8D2F6DDE79CF8C2F837092
:101C300081F5111174CF4D2F429546954770440F91
:101C4000440F2D2F2F7030E0042E02C0220F331FBF
:101C50000A94E2F790E080E0D4FF09C08FE090E0C2
:101C600002C0880F991F4A95E2F780959095C69516
:101C7000C695C370822B932BC23039F040F4C1302B
:101C800011F042D14CCF39D14ACF45D148CF33D1D1
:101C900046CF8695112311F08C2F8170882309F48B
:101CA0003ECF4D2F429546954770440F440F2D2F40
:101CB0002F7030E0042E02C0220F331F0A94E2F787
:101CC00090E080E0D4FF09C08FE090E002C0880F70
:101CD000991F4A95E2F780959095C695C695C37071
:101CE000822B932BC23039F040F4C13011F067D110
:101CF00016CF5ED114CF6AD112CF1AD110CFCF70C8
:101D0000112321F08C2F28D18D2F43CF8D2F9CDED6
:101D10008C2F30D104CFD23F39F160F4D03FB9F0ED
:101D2000D13F81F0112309F43CC00111E3CE8C2F87
:101D30008F711EC0D33FF1F0D43FA1F780912405ED
:101D400082FD20C08C2F8F71112319F311C0112334
:101D500039F0053008F0E3CE8C2F8F711BD1DFCE28
:101D6000063008F0DCCEF8CF8C2F8F711111D1CF57
:101D7000F3D0D5CE112321F08C2F8F71E3D0CFCEAD
:101D8000DED0CDCE112329F063E08C2F8F71A8D542
:101D9000C6CE81E0C6D5023008F4C1CE82E0C1D5FE
:101DA000BECE002359F0D93309F01DCFEFEFF7EE87
:101DB00023E0E150F0402040E1F713CF8C2F8F71EA
:101DC000A8CFEE2009F4B4CE84D480FDB1CEF601C4
:101DD000158279D4C1D0C60117D075D4CBD0A8CE86
:101DE0000F931F93CF93DF93EC01688179818D81ED
:101DF000A4D18C01F2D07ED0B801CE012ADEDF91D1
:101E0000CF911F910F910895CF93DF93EC018C81B7
:101E1000882381F0CE0157DC81110FC074D4882350
:101E200049F08D81882331F08091240582FF02C022
:101E300082E077D5DF91CF910895CE01D1DFCE0139
:101E4000F6DBF8CF90E080E00E94272290E080E06F
:101E50000E944E227FD437D50E94AB1F0C94F81EEF
:101E60000E947123EFCF66D4FBCF92959F7096307E
:101E700091F058F4925F9F70923058F4803F19F0BF
:101E800030F4883E30F481E008959A5FF4CF843FC7
:101E9000D1F380E00895883EB0F3813FD1F7F3CFCE
:101EA000FC012481222321F0808191813DD1DDCF6D
:101EB00080E00895A6E0B0E0E0E6FFE00C94172D86
:101EC0002696E2E00C94332DA7E0B0E0EAE6FFE0CE
:101ED0000C94172D2796E2E00C94332D0895FECF35
:101EE0000895FDCF0895FADFFCDF909303038093FC
:101EF000020308950895F7CF0895209102033091C9
:101F00000303822B932BEFCF209102033091030325
:101F100082239323E8CF2091020330910303822789
:101F20009327E1CFDBCF0895FDCF0895D7CF089554
:101F3000FDDFFADF9093010380930003089590E0A2
:101F400080E0F6CF21E030E0A90102C0440F551F28
:101F50008A95E2F7CA01ECCF21E030E002C0220FFF
:101F6000331F8A95E2F78091000390910103822B41
:101F7000932BDECF21E030E002C0220F331F8A9581
:101F8000E2F7209530958091000390910103822320
:101F90009323CECF21E030E002C0220F331F8A9579
:101FA000E2F7809100039091010382279327C0CF2D
:101FB0002091000330910103822B932BB9CF209104
:101FC00000033091010382239323B2CF20910003B9
:101FD0003091010382279327ABCF0895262F2770D6
:101FE00091E001C0990F2A95EAF723E0769567956D
:101FF0002A95E1F7660F771F660F771FFA01E60F44
:10200000F71F50E040E0682F70E08191DF011197E9
:102010009B01042E02C0369527950A94E2F72170A1
:1020200021952827292328272C934F5F5F4F443081
:10203000510559F70895A82FA77023E09695879525
:102040002A95E1F7880F991F880F991FFB01E80F68
:10205000F91F50E040E080E0219130E00A2E02C0FC
:10206000369527950A94E2F721703327042E01C094
:10207000220F0A94EAF7822B4F5F5F4F44305105DD
:1020800059F70895262F953068F48E3058F4682F4C
:1020900070E08EE0989F600D711D11244CED52E0B0
:1020A000822F9CCF0895292F953058F48E3048F414
:1020B00090E06CED72E03EE0239F800D911D1124B5
:1020C000BACF80E00895B0E0A0E0E9E6F0E10C943A
:1020D000102D7C01009100031091010380910203F7
:1020E00090910303082B192BCFE0D0E0CC24C394AC
:1020F000D12CBC2EC6010C2E02C0880F991F0A9449
:10210000E2F780239123892B49F4219790F7B12C92
:102110008B2DCDB7DEB7E9E00C942C2DB7018C2FB9
:102120007FD6019791F3F4CFCF93DF93EC01CBDF10
:10213000BE0176D6DF91CF9108951F93CF93DF93A1
:10214000EB019091DB02992331F0CB01EDDFDF91C0
:10215000CF911F910895882351F0CB01B4DF182F40
:10216000682FCE018FDFBE01812F5AD6F0CFCB0171
:102170009ADF182FF8CF1F93CF93DF93C0910403FA
:1021800017E0809105038C1304C0DF91CF911F915C
:102190000895D0E01C9FF0011D9FF00D1124EA5F0F
:1021A000FC4F208131814281538164817581868118
:1021B0008BDE2196C770E5CF20913E0330913F031F
:1021C0004091400350914103609142037091430359
:1021D0008091440379CECF93DF9380914403807F35
:1021E00009F04BC080914303882309F446C0E09175
:1021F000040350910503C0913F03D0913E036091C9
:1022000040037091410347E05E17B9F18E2F90E0D3
:10221000E49FF0011124EA5FFC4F2481222381F125
:10222000489FF001499FF00D1124DF01AA5FBC4FC8
:1022300011962C9111972C1323C02C912D1320C093
:1022400015962C91159721111BC012962D913C913A
:10225000261B370B283C310598F4809144038F707E
:10226000806180934403E45FFC4F80818F708061C4
:1022700080838EE393E0C8DD7EDFDF91CF91089508
:10228000FC013196E770C0CF482F20910403909154
:10229000050357E0291302C080E0089530E0529F03
:1022A000F001539FF00D1124EA5FFC4F8181681308
:1022B00006C08081481303C085818111EECF2F5F56
:1022C0003F4F2770E7CFA4E1B0E0E9E6F1E10C94DD
:1022D0000D2D8C0186E0F801DE011F9601900D9214
:1022E0008A95E1F7F8018481E5809EE3A92E93E0C9
:1022F000B92E9091420391111AC08823A9F0EE20C3
:1023000089F0C801CDDDF82E882361F087E0F8015F
:10231000D50101900D928A95E1F7C501EBDA5BDFFB
:102320004BDF59C0C80170DDFF24F39454C0C08056
:10233000D18082809380F0904303209140033091BC
:102340004103A401421B530BFF2009F4E9C0483CA0
:10235000510508F09CC0882309F43DC090913F03CB
:1023600080914403282F207F09F056C09D1114C08E
:1023700090913E03C91210C0E11048C08F70806177
:102380008093440319DF8EE393E03EDD80914403A4
:10239000F8018683F12C1FC0E11038C06D2D8C2D03
:1023A00073DF6D2D8C2D70DFE82E8111F3CFCF867A
:1023B000D88A8F859889B8DE292F22952F702430EE
:1023C00078F49F702230A0F09923B1F0F801968143
:1023D000907F91F4FE2C8F2D6496ECE00C94292DC7
:1023E0002A5F2F70223060F0C8010EDDEF2CF2CF93
:1023F000992311F0882371F3805E883058F3F4CF6D
:10240000803F40F3815F833078F7E4CF80914403CD
:10241000816080934403BECF9D1112C090913E0312
:10242000C9120EC0E1100CC08683C801EDDC87E044
:10243000F801AEE3B3E001900D928A95E1F770CF19
:10244000C8012EDD882309F46DCFEE2009F46ACF90
:1024500080914403803280F020913E0330913F030D
:10246000398728879B868A86909142039C871D86A0
:102470008E87CE010896C8DC87E0F801AEE3B3E0B2
:1024800001900D928A95E1F7A6DE96DE4DCF9091F0
:102490004403292F207F89F4682D9A8A898AA6010E
:1024A0007A899E2D07DD8EE393E0AEDC87E0F501AF
:1024B00011928A95E9F780DE6DCF882309F48BCFDE
:1024C00080913F038D110FC080913E03C8120BC055
:1024D000E11009C09683C80197DC87E0F5011192ED
:1024E0008A95E9F778CFC801DBDC882309F41ACF95
:1024F000EE2009F417CF80914403803208F4BCCF5A
:1025000020913E0330913F033A8329839C828B8242
:10251000909142039D831E828F83CE010196ABCFA3
:10252000483C5105A8F5882309F4FECEFE2CEE2088
:1025300009F4F8CE80913F038D111EC080913E03B7
:10254000C8121AC08091440380FD0DC0982F907F5F
:1025500051F08683903F09F468CF982F907F905F69
:102560008F70892B61CF87E0F801AEE3B3E0019073
:102570000D928A95E1F72FCFC80192DC81117CCFB3
:1025800080914403816080934403C8013DDC23CFE4
:10259000682D9A8A898AA6017A899E2D8BDC87E02C
:1025A000F50111928A95E9F7BBCEAEE0B0E0EBED14
:1025B000F2E10C94162D288739874A875B876C8750
:1025C0007D878E87CE0108967EDE8823A9F06C85F4
:1025D000662339F0288539854A855B857D858E851A
:1025E00073DC17E0809104039091050389133BC0CD
:1025F0002E96E3E00C94322D87E0FE013896DE0142
:10260000119601900D928A95E1F78C85882349F304
:102610002091050330E0C901019687709927409108
:1026200004034817190691F097E0929FD001939FF9
:10263000B00D1124AA5FBC4FFE01319601900D929E
:102640009A95E1F78093050396DDCBCF0CDC1092D1
:1026500005031092040387E0EEE3F3E0DF011D922F
:102660008A95E9F7BECF819FC00111248A5F9C4FF4
:102670002ADE882309F4BCCFE09104031E9FF001F9
:102680001124EA5FFC4F20813181428153816481B2
:102690007581868119DC8091040390E00196877032
:1026A0009927809304039ECF0E949E24209170035B
:1026B00030917103821B930B9C0181E0243F3140D8
:1026C00008F480E0089580916F038695869586953D
:1026D000089580916F03877008950E949E24209131
:1026E0006D0330916E03821B930B843F914048F041
:1026F00080916F0382FB882780F991E089278170A0
:10270000089580E0FCCF90916F03977081E009F409
:1027100080E0089580919D03089590919D03892BF9
:1027200080939D030895809590919D0398239093A5
:102730009D03089510929D03089590919C03892B09
:1027400080939C030895809590919C039823909387
:102750009C03089510929C0308950895FECF089558
:1027600090917203292F282329F080958923809343
:102770007203F4CF08950895FECF0895CF93C82F24
:10278000809173038C238C1769F00E949E24909390
:10279000710380937003809173038C2B8093730378
:1027A0008C2FEADFCF91089590917303292F28236E
:1027B00079F08095892380937303882351F00E94D8
:1027C0009E24909371038093700380917303D4CF00
:1027D000089590E080E0F5CF80917303882341F065
:1027E00010927303109271031092700380E0C4CFB3
:1027F0000895CF93C0919D0380919C03C82B809135
:1028000073038823B9F050DF882369F08091B20305
:1028100080FF08C08FE999E09F938F930E941C0A64
:102820000F900F90D9DF80917303C82B0E947522FF
:102830008111D2DF8C2FCF910895CF93DF93C09178
:102840000201D0910301D5DF8883C0910201D091AC
:10285000030148E050E065E673E0CE010E94522D8E
:10286000892B59F088E0FE01A5E6B3E001900D92B6
:102870008A95E1F7CE010E946E21DF91CF910895F4
:10288000CF93DF93C0910001D0910101B2DF898322
:10289000C0910001D091010140E250E065E473E095
:1028A000CE010E94522D892B59F080E2FE01A5E451
:1028B000B3E001900D928A95E1F7CE010E94BE210E
:1028C000DF91CF9108950E945821882329F08091AB
:1028D000230587FF01C0D4CFB0CF0895FECF089560
:1028E0009091240592FF14C098E0899F90011124D3
:1028F000622B60936F0330DB0E949E2490936E03E3
:1029000080936D0380916F03869586958695E6CFBB
:1029100023CB10926F0310926E0310926D0380E030
:10292000DDCF90916F038095892380936F03282FCB
:10293000277059F4891749F09091240592FF05C03A
:1029400086958695869516DBE4CF0895CF93C82F9C
:102950008091240582FB992790F99C17C9F0C0FB50
:1029600082F98093240583E295E057D082E0D9DF95
:102970008091B20380FF0CC01F92CF9381EB99E04E
:102980009F938F930E941C0A0F900F900F900F90AF
:10299000CF9108958091240582FB882780F991E0EA
:1029A0008927D4CF81E0D2CF80E0D0CF60E070E043
:1029B000CB0188C360E070E0CB017ED3F7CFA3E00A
:1029C000B0E0E5EEF4E10C94172D2FD33AD31B823F
:1029D000CE0103964DD381E090E090930303809362
:1029E000020352D31A8219828A8184618A83CE01BA
:1029F00001965BD3DFDF2396E2E00C94332DDFCF2B
:102A0000089525C3089512C3089527C3089536C3B2
:102A100008953AC308953DC3089547C3089558C320
:102A20000895A6E0B0E0E7E1F5E10C94152D0E94D1
:102A30009E248C0180919E0390919F0380179107A3
:102A400081F019821A820E949E24682F49815A813E
:102A5000792F80E090E00E94400C10939F03009338
:102A60009E032696E4E00C94312D0E94AA246093E4
:102A7000AE037093AF038093B0039093B103609360
:102A8000AA037093AB038093AC039093AD030895B6
:102A900008950895FDCF08950895FEDFFBCF0895B2
:102AA000FECF08950895FEDFFBCF8BE397E2F9D3C5
:102AB000F0DFF3CF81E00895FDCF0895FBCF0895B7
:102AC000089508950895FCDFFCDFFCCF9CDF8111A1
:102AD00001C095DF82EB93E098DF83E295E09BDF16
:102AE000FDD395DF08DA80910003909101031CCAA1
:102AF0000E9495244DD3EADF0E94100CD4CFA6E0AB
:102B0000B0E0E5E8F5E10C940B2DD6DF811109C0AA
:102B100088DF0E94CD1F0E94180C2696EEE00C94D0
:102B2000272D5DD320EA822E23E0922E640110E04F
:102B3000F601E190F1906F01812FD3D21F5F153024
:102B400009F447C0E816F90699F38091B20381FDB4
:102B5000D1D2B4DF782E10E066246394812FC1D2E5
:102B60007C01F401A190B1904F018A159B0561F1A0
:102B700000E0CC24C394D12CAE24BF24C5018C2109
:102B80009D21892BC1F07720B1F009831A830E941F
:102B90009E249C838B836D8221E0C7018C219D2123
:102BA000892B09F420E049815A816B817C818D81D8
:102BB000922F0E94400C0F5FCC0CDD1C0E30F1F602
:102BC000F4013297F182E0821F5F153039F64DDF54
:102BD000A0CFE816F90609F0B8CF9ACF1F93CF938C
:102BE000DF9320D1EC01C11580E5D807F0F5C115C0
:102BF00080E4D80708F09AC0C03ED10520F5CD3C4E
:102C0000D10508F082C0C83AD10578F4C53AD1059B
:102C100008F073C0C130D10519F1209709F1C43013
:102C2000D105F0F4D0E0C0E01BC0C33CD105D0F723
:102C3000C85AD0E0CC0FDD1FCD5ADE4F0990D881A5
:102C4000C02DD4640DC0C11580E2D80708F0CDC0F6
:102C5000C11581E0D80708F05AC0C83ED10510F769
:102C6000CE01DF91CF911F910895C03682E5D8073C
:102C700018F5C03482E5D80708F068C0C03282E594
:102C8000D80708F05CC0C11582E5D80708F493C0E6
:102C90002C2F2695269580E2289F900111248C2FB9
:102CA0008370C1E0D0E002C0CC0FDD1F8A95E2F74F
:102CB000C22BD32BDD68D4CFC03A82E5D80760F4AD
:102CC000C03882E5D80708F456C0CF71D0E0DC2FB9
:102CD000CC27C46FD06AC4CFC03C82E5D80708F4C3
:102CE0005FC0C03E82E5D80708F09CCFDC2FCC2720
:102CF000CC27DF71C06FD06AB3CFC55AD0E0C757B9
:102D0000DE4FC881D0E0D064ABCFD065A9CF8D2F86
:102D10002BD1182FCE01992785D0C12FD0E0DC2FE1
:102D2000CC27CC27DF71C82BD92B9ACFCE0199277E
:102D300079D0CC27DF70C82BD92BD06A91CFCF7137
:102D4000D0E0DC2FCC27C16FD06A8ACF2C2F2695FC
:102D50002695277080E2289F900111248C2F837084
:102D6000C1E0D0E002C0CC0FDD1F8A95E2F7C22B94
:102D7000D32BDC6875CF2C2F26952695277080E203
:102D8000289F900111248C2F8370C1E0D0E002C0F5
:102D9000CC0FDD1F8A95E2F7C22BD32BDA6860CF08
:102DA0008C2F8F71E1D0C82FD0E0DC2FCC27CC271F
:102DB000DF71D06255CF8C2F8F71D6D055E0D6956C
:102DC000C7955A95E1F7CF70D0E0DC2FCC27282F9C
:102DD00030E084FF06C044E0220F331F4A95E1F73C
:102DE0003327C22BD32BD0693BCF8D2F8F71BCD013
:102DF000182FCE01992716D0C12FD0E0DC2FCC2779
:102E0000CC27DF71C82BD92BD4CF462F753028F4AF
:102E10006E3018F4672F0C94BA0A90E080E00895A1
:102E2000F4DFDCCE82389105B9F1B0F4813391053D
:102E300009F47DC048F48932910509F46DC08A32E5
:102E4000910509F47BC008958533910509F45FC0AD
:102E50008933910509F10895833E9105D9F138F43C
:102E6000803E910529F1823E910579F10895863ED3
:102E70009105D9F1873E910509F43EC0843E910544
:102E800041F52091240521FF24C08091230584FD74
:102E900019C087EE90E0089520912305237009F072
:102EA0005AC02091240523FF14C089E290E00895C0
:102EB0002091230520FD38C03091240530FF09C042
:102EC00024FF43C090E080E008952091230522FD77
:102ED000F7CF08952091230522FD3AC030912405B3
:102EE00030FD39C024FFF5CFEDCF2091230523FF1E
:102EF000F0CF24FDE7CFCDCF2091230523FD2EC0B9
:102F00003091240531FFEECF84EE90E008952091BA
:102F1000230525FFDECFC9CF2091230525FD21C044
:102F20002091240523FFD5CF89E390E0D2CF2091D3
:102F3000230526FFCECF8AE290E008952091230555
:102F400026FFC7CF81E390E0089583EE90E00895D7
:102F500082EE90E0089580EE90E0089586EE90E095
:102F6000089585E390E008959091230592FF10C0A5
:102F700041E0282F2471243009F040E031E0282F6F
:102F80002871283009F030E0431711F02CE0822737
:102F900093FF10C041E0282F2471243109F040E054
:102FA00031E0282F2871283109F030E0431711F063
:102FB0002CE082273091240530FF10C051E0282FEB
:102FC0002171213009F050E041E0282F287128308C
:102FD00009F040E0541711F029E0822731FF10C0BA
:102FE00041E0282F2171213109F040E031E0282F04
:102FF0002871283109F030E0431711F029E08227C9
:1030000094FD877E0895CF939C01205E3245C1E0F8
:103010002032310538F4FB01C581C11103C08F7125
:103020000E94330B8C2FCF910895089590E080E09B
:103030000E94702D21E0833E9E4F09F020E0822FF8
:10304000089563EE7EEF90E080E00C948F2D6FEF9B
:103050007FEF90E080E00C948F2DCF93DF93EC0115
:1030600082E090E00E94682D8883DF91CF910895DF
:10307000FC01608182E090E00C94752D83E090E08B
:103080000E94682D90E00895682F83E090E00C94F2
:10309000752DCF93DF93EC0184E090E00E94702DBA
:1030A00099838883DF91CF910895FC0160817181BC
:1030B00084E090E00C948F2DAB01BC018FE090E098
:1030C0000C94872DAB01BC0183E190E00C94872D1B
:1030D000682F8EE090E00C94752D08950895FECF32
:1030E0000895E82FF0E0EE0FFF1FE15DFA4F8081B9
:1030F00091810895B0E0A0E0E0E8F8E10C940D2D96
:1031000086ED99E09F938F930E941C0A8FE2E82E30
:1031100085E0F82E0F900F90912C812C91EDA92E27
:1031200099E0B92E2EECC22E29E0D22E08EC19E03F
:10313000C6ECD9E09F928F92BF92AF920E941C0A78
:10314000DF92CF920E941C0AF701819191917F0139
:103150000E94F50B9F938F931F930F930E941C0A5D
:10316000DF93CF930E941C0A9FEF891A990AEDB74B
:10317000FEB73C960FB6F894FEBF0FBEEDBFF5E06C
:103180008F169104B9F6CDB7DEB7ECE00C94292D7B
:103190000E94250AA5E2B5E011961C921E92EFE26C
:1031A000F5E01182108213961C921E9212971382E0
:1031B000128215961C921E921497158214821796ED
:1031C0001C921E9216971782168219961C921E92B6
:1031D00018971186108685E013D00C949B0ACF9324
:1031E00085E295E00E942B0A282F45E06FE275E00A
:1031F00085E295E006D0C82F72DF8C2FCF9108951D
:103200000895B0E0A0E0E7E0F9E10C94112D6C0125
:103210007B01042FC22F222379F081E08093B50334
:103220000E949E249093B4038093B30380E0CDB7B3
:10323000DEB7E8E00C942D2DD091B503DD23B1F37A
:103240008091B3039091B4030E942F24059770F3EB
:1032500010E0000F111FA801B601C7010E94522DF6
:10326000892B31F0A801B601C7010E945F2DCD2F37
:103270001092B5038C2FDBCF42CC08950E943824E6
:103280000E949D2712DC0E94B52732DC0E94BE27D7
:103290000E94C127F1DF0E94E3270E94E92513DC89
:1032A000F7CF9093D5028093D4020895AACB0895C6
:1032B00080E017DF8170089592DF2FEF86E791E0BD
:1032C000215080409040E1F700C0000088DFF0DF2F
:1032D000882319F0EBDF0C94DA240895EDCF0895DC
:1032E000809104011F928F93809105011F928F930B
:1032F000809108011F928F93809109011F928F93F3
:1033000080910A011F928F9380910B011F928F93DE
:103310008DEE99E09F938F930E941C0A8DB79EB704
:103320000E960FB6F8949EBF0FBE8DBF08958832DB
:1033300048F58E3108F07DC08B3069F130F487306C
:1033400009F4DEC08CE49BE0EFC0833109F467C070
:103350008431C1F78EE69BE09F938F930E941C0AF5
:103360000F900F908091BA03882309F40FC1109237
:10337000BA031092B9031092B8031092B7031092D7
:10338000B60324C08F3409F4D4C008F03EC089329B
:1033900009F38833B9F681E79BE09F938F930E94EE
:1033A0001C0A9EDF1F9281E08F931F9288E08F930B
:1033B0008AE69AE09F938F930E941C0A8DB79EB76E
:1033C00008960FB6F8949EBF0FBE8DBF2091BA032A
:1033D000222309F4D2C08091B6039091B7030097DD
:1033E00011F48CE891E09F938F931F922F938AE3BF
:1033F0009BE09F938F930E941C0A0F900F900F9059
:103400000F900F900F9081E00895813509F4A5C0C9
:1034100008F4A5C0823509F095CF81E08BC080E625
:103420009BE09F938F930E941C0A5ADF0F900F908E
:10343000CDCF8D518093BA03833009F446C078F420
:103440008130E1F08230C1F11092BA038DE59BE04A
:103450009F938F930E941C0A0F900F901BC0853082
:1034600009F445C0D8F1863079F784E091E0909373
:10347000B9038093B80384ED91E008C08BE091E03C
:103480009093B9038093B80380E991E09093B703D8
:103490008093B6038091BA03882309F497CF1F92D3
:1034A0008F9389E59BE09F938F930E941C0A0F9056
:1034B0000F900F900F908ACF8AE091E09093B9031C
:1034C0008093B80389E991E0E1CF89E091E090939E
:1034D000B9038093B80385EA91E0D8CF88E091E002
:1034E0009093B9038093B80382EB91E0CFCF85E04E
:1034F00091E09093B9038093B80381EC91E0C6CF3B
:1035000081E080930B0184E180930A018AE080933B
:1035100009018EE18093080188E08093050188E22B
:10352000809304018FE49BE09F938F930E941C0A79
:103530007DCF8AE0E091B803F091B9033097D1F0E4
:103540002081082E000C990B820F911D8F3F910551
:1035500041F03CF08FEF808307C08FEFEBCF86EF19
:10356000E9CF97FFF8CF108280811F928F9386E476
:103570009BE099CF83E49BE0D7CF86E39BE09F93CA
:103580008F930E941C0A0F900F903DCF80E008950A
:10359000CF93C82F1F928F9387E89BE09F938F93C1
:1035A0000E941C0A81E090E002C0880F991FCA9512
:1035B000E2F70E947B0F0E94330F0F900F900F9045
:1035C0000F90CF910895A3E0B0E0E9EEFAE10C94FA
:1035D000102DEBEFE80FEF3308F052C1F0E0EF549D
:1035E000F24D0C94012D13DA1F921F929F938F932B
:1035F00087E39FE09F938F930E941C0ACE0103965E
:1036000004DA8B8183FB882780F91F928F938B814B
:1036100082FB882780F91F928F938B81869581701A
:103620001F928F938B8181701F928F938B811F923A
:103630008F938EEE9EE09F938F930E941C0ACE0183
:103640000196E9D98A8183FB882780F91F928F939D
:10365000898187FB882780F91F928F93898186FB58
:10366000882780F91F928F93898185FB882780F9AD
:103670001F928F938981829581701F928F93898188
:1036800083FB882780F91F928F93898182FB88278B
:1036900080F91F928F938A81869581701F928F93F4
:1036A0008A8181701F928F938981869581701F9284
:1036B0008F93898181701F928F938A818F938981E3
:1036C0008F938FEE9DE09F938F930E941C0A0FB6FD
:1036D000F894DEBF0FBECDBF94C088EF9FE09F93EC
:1036E0008F930E941C0A8BD90F900F908AC08AE397
:1036F0009CE09F938F930E941C0AF6CF8091B203A7
:10370000807F8093B20383E19CE09F938F930E941C
:103710001C0A84EF9FE09F938F930E941C0A81E014
:103720008093BB030F900F900F900F902396E9E0CA
:103730000C942C2D88ED9FE09F938F930E941C0A80
:103740000E945B0BD1CF9091B203892F8E7F90FFA7
:1037500081608093B20380FF03C08CEC9FE0C9CFEF
:103760008FEB9FE09F938F930E941C0A8091B2037E
:10377000817F8093B203B8CF9091B203892F8D7F60
:1037800091FF82608093B20381FF0AC082EB9FE0C9
:103790009F938F930E941C0A8091B2038160E9CFAE
:1037A00084EA9FE0A6CF9091B203892F8B7F92FF8E
:1037B00084608093B20382FF03C085E99FE0E8CF75
:1037C00085E89FE096CF9091B203892F877F93FF82
:1037D00088608093B20383FF03C089E79FE0D8CF5E
:1037E0008CE69FE086CF89EE91E09F938F9380E1F6
:1037F0009CE09F938F930E941C0A0F900F900F9054
:103800000F9081E093CF0E94AA24E62ED72EC82ED7
:10381000B92E1091230517FB112710F90E941124CE
:10382000F82EE3D7082F4BD5BF92CF92DF92EF92BD
:103830001F921F931F92FF921F920F931F928F93BD
:103840008CE89BE09F938F930E941C0A40CF0E94BC
:10385000330F90912305892F97FB87F98058809328
:10386000230587FF03C082E69FE043CF87E59FE003
:1038700040CF80E08DDEC5CF8953FCCF8D51FACF8C
:1038800085E59FE09F938F930E941C0A0F900F90F5
:1038900080E04CCF80E00895FDCF0895CF93C82FEE
:1038A0008091BB038130B1F0882339F0823009F474
:1038B0004CC01092BB0380E00BC00E948A1382327E
:1038C000D1F78C2FE7DF81111DC08C2F7CDE81703A
:1038D000CF9108950E948A13823299F38C2FDCDFF6
:1038E000811127C0C43139F180F4CB3091F0C0315F
:1038F00031F181E89BE09F938F930E941C0A0F9007
:103900000F901BC081E090E0E2CFC932A1F0C83334
:1039100081F783E19CE09F938F930E941C0A83E8C8
:103920009BE09F938F930E941C0A0F900F900F9023
:103930000F9081E0CCCF1092BB0380E0C8CF82E033
:103940008093BB0388E3F3DCF4CF8C2FF0DC81E0C1
:10395000BFCFCF93DF93EB0186319C4701F50E94E7
:103960008A139D81992391F08A7A91E009F490E07D
:103970009093BC03811108C089E285D60E9463142C
:1039800080E0DF91CF91089585E3F7CF8091BC036C
:10399000811103C089E28ED6F1CF85E3FCCF81E0AF
:1039A000F0CFCF93DF93EC01FB018581882309F4ED
:1039B000CDC09E0130572332310508F0ADC083E2FF
:1039C00095E029D8FE01E150F047E232F10520F4FC
:1039D000E051F24D0C94012D80912305816080937C
:1039E000230593C0809124058860809324058DC0B1
:1039F000809123058260F3CF809123058460EFCF0F
:103A0000809123058860EBCF809124058160EDCF04
:103A1000809124058260E9CF809123058061DFCF0A
:103A2000809123058062DBCF809123058064D7CF0E
:103A30000E94330F809123058068D1CF80912305A8
:103A40008C60CDCF809124058360CFCF80912305FA
:103A50008E7FC5CF80912405877FC7CF80912305B6
:103A60008D7FBDCF809123058B7FB9CF80912305BA
:103A7000877FB5CF809124058E7FB7CF80912405B5
:103A80008D7FB3CF809123058F7EA9CF80912305B1
:103A90008F7DA5CF809123058F7BA1CF0E94330F0F
:103AA000809123058F779BCF80912305837F97CFCC
:103AB000809124058C7F99CF8091230582FB9927E3
:103AC00090F921E0922790FB82F990FB83F987CF50
:103AD00080912405982F909591708E7F892B90FB73
:103AE00081F983CF90912305892F8F7B96FF806486
:103AF00076CF0E94330F90912305892F97FB87F98A
:103B000080586DCF81E00E940F1583E295E00E94FE
:103B10000D150E94330F80E0DF91CF91089580E072
:103B2000F2CF90912305892F8F7E94FF806157CF2C
:103B300090912305892F8E7F90FF816050CF9091C7
:103B40002405892F877F93FF88604FCF81E0E4CFE2
:103B5000282F35EB2303C001112497FF04C08058A0
:103B60009109892F089580589F4FFBCF8091C303FF
:103B700080FF0DC06091090170E0660F771F60380B
:103B8000710570F56115710569F1862F089581FF42
:103B900007C06091090184E0689FB0011124EFCF54
:103BA0006091090182FD0AC08091C2038823A9F0B7
:103BB0002091080160910901821710F088E0ECCF94
:103BC000869FC001112433E0880F991F3A95E1F7D1
:103BD000622F70E00E94CC2CD2CF68E070E0D5CF8D
:103BE0008FE7089581E008958091C30380FF0CC0A2
:103BF0006091050170E075956795759567956115FC
:103C0000710549F1862F089581FF06C06091050175
:103C100070E075956795F3CF6091050182FD0BC04B
:103C20009091C1039923A1F0609104018091050155
:103C3000961738F0682F70E06038710500F38FE751
:103C40000895899FC001112470E00E94CC2CF4CF0C
:103C500061E070E0D7CF81E008958D3C29F486DFE4
:103C600081958093C70308958E3C11F47FDFF9CFCF
:103C70008F3C29F47BDF81958093C6030895803DB6
:103C800011F474DFF9CF893D21F4AEDF8093C803CE
:103C900008958A3D19F4A8DF8195F8CF8B3D29F46A
:103CA000A3DF81958093C90308958C3D11F49CDFB7
:103CB000F9CF9FE2980F983070F4815D990B21E065
:103CC00030E001C0220F8A95EAF78091C503822B6C
:103CD0008093C50308958D3D31F48091C3038160C5
:103CE0008093C30308958E3D21F48091C3038260C5
:103CF000F7CF8F3DB9F78091C3038460F1CF409136
:103D0000C6038D3C59F48091C70387FF0DC0109204
:103D1000C70341110BC01092C20308C08E3C81F44E
:103D20008091C70318169CF3442381F08091C80347
:103D30009091C903892B09F05AC01092C1030895CC
:103D40008F3C49F447FFF0CF1092C6038091C70320
:103D50008111ECCFE0CF803D19F41416ACF3E4CF21
:103D60009091C803893D29F41916F4F61092C803FE
:103D7000DBCF8A3D19F497FFD7CFF8CF9091C903D5
:103D80008B3D29F497FFD0CF1092C903CDCF8C3D46
:103D900019F41916CCF3C8CF9FE2980F983090F41D
:103DA000815D990B21E030E0B90102C0660F771FF9
:103DB0008A95E2F7CB0180959091C5038923809382
:103DC000C503B2CF8D3D31F48091C3038E7F8093C4
:103DD000C303AACF8E3D21F48091C3038D7FF7CF1B
:103DE0008F3D09F0A1CF8091C3038B7FF0CF089561
:103DF0008091B20383FF96C080E390E19F938F93FD
:103E00000E941C0A8091C5031F928F938BE290E160
:103E10009F938F930E941C0A89E290E19F938F9356
:103E20000E941C0A8091C603282F082E000C330B19
:103E30003F938F9386E290E19F938F930E941C0A99
:103E400084E290E19F938F930E941C0A8091C703A4
:103E5000282F082E000C330B3F938F9381E290E1C3
:103E60009F938F930E941C0A8FE190E19F938F9301
:103E70000E941C0A8091C803282F082E000C330BC7
:103E80003F938F938CE190E19F938F930E941C0A44
:103E90008AE190E19F938F930E941C0A8091C9034D
:103EA000282F082E000C330B3F938F9387E190E16E
:103EB0009F938F930E941C0A84E190E19F938F93BC
:103EC0000E941C0A8DB79EB780960FB6F8949EBFCD
:103ED0000FBE8DBF8091C2031F928F9381E190E14D
:103EE0009F938F930E941C0A8FE090E19F938F9382
:103EF0000E941C0A8091C3031F928F938CE090E173
:103F00009F938F930E941C0A89E090E19F938F9367
:103F10000E941C0A8DB79EB70C960FB6F8949EBFF0
:103F20000FBE8DBF0BD59C019091C6038091C70336
:103F3000982B21F03093C0032093BF039091C803C6
:103F40008091C903982B21F03093BE032093BD03C9
:103F500084EC93E06AC286E0E4ECF3E0DF011D92BA
:103F60008A95E9F71092C2031092C1031092C3031D
:103F70000895FC01828181110EC0838181110BC0E3
:103F80008481811108C091E08581811101C090E098
:103F9000892F8170089581E0FCCFA6E0B0E0E3EDC9
:103FA000FFE10C94162D86E0E4ECF3E0DE011196BF
:103FB00001900D928A95E1F71092C6031092C70303
:103FC0001092C8031092C9038B819C81892B81F0C8
:103FD0008091BF039091C00342D4AC019091C20381
:103FE0009923A9F180910A018417150608F43CC0B1
:103FF0008D819E81892B89F08091BD039091BE03B4
:104000002ED4AC019091C103992309F463C080912F
:1040100006018417150608F46BC0BE016F5F7F4F61
:1040200084EC93E077D3811104C084EC93E0A1DFAA
:104030008111DEDE86E0FE013196A4ECB3E0019052
:104040000D928A95E1F72696E3E00C94322D2091AB
:104050000B018AE0289F900111242417350740F6B0
:104060009F5F9093C20302C09F3FD1F71B81112332
:1040700051F07CDD9FEF11160CF491E0899F802DAB
:1040800011248093C6031C81112351F06FDD9FEF33
:1040900011160CF491E0899F802D11248093C703A1
:1040A0008091C603882309F4A3CF1091C70311237D
:1040B00009F49ECF4DDD882349F08093C603812FFC
:1040C00047DD882329F08093C70392CF81E0F5CFA5
:1040D00081E0F9CF209107018AE0289F9001112407
:1040E0002417350708F099CF9F5F9093C10302C052
:1040F0009F3FD1F71D81112351F076DD9FEF1116FF
:104100000CF491E0899F802D11248093C8031E81B7
:10411000112351F069DD9FEF11160CF491E0899F96
:10412000802D11248093C9038091C803882309F44A
:1041300074CF1091C903112309F46FCF09DD8823CF
:1041400049F08093C803812F03DD882329F08093F1
:10415000C90363CF81E0F5CF81E0F9CF0F931F93BF
:10416000CF93DF93C42FD22FFC0185818823C1F028
:104170004093CC03E3D39093CB038093CA0380E2B4
:104180008C0F883040F4C77081E001C0880FCA9559
:10419000EAF70E941F0DDF91CF911F910F910895B3
:1041A0001091CC03141331C08091CA039091CB03BA
:1041B00056D3883C910548F5C0E2CD0F1D17B9F0E4
:1041C00080E2810F883040F4177081E001C0880FD1
:1041D0001A95EAF70E94240DC83048F481E09D2F1B
:1041E000977001C0880F9A95EAF70E941F0D802FE3
:1041F0000E94180DC83078F6D77081E001C0880F92
:10420000DA95EAF70E94240DC6CF80E28C0F883041
:1042100010F6C77081E001C0880FCA95EAF7F2CFA7
:104220000F93DB0188519C478730910598F5FC017D
:10423000EE5EF14D0C94012D06E221EE41EE6AE1B5
:104240007CE7CD018BDF80E00F91089507E225EE3A
:1042500045EE6BE17CE7F5CF06E221EE40EE68E14A
:104260007CE7EFCF07E225EE44EE69E17CE7E9CF9A
:1042700006E221EE42EE6CE17CE7E3CF07E225EEB9
:1042800046EE6DE17CE7DDCF08E221E045EE6EE130
:104290007CE7D7CF15968C91882319F01092CC0328
:1042A000D3CF81E0D1CF9093D2038093D1030895EF
:1042B0009CD291E0813009F090E0892F0895E0913F
:1042C000D103F091D203309739F00190F081E02DC5
:1042D000309711F00995089580E00895EF92FF92CC
:1042E0000F931F93CF93DF93EC01E091D103F091F3
:1042F000D2033097F1F10280F381E02D3097C9F1BC
:1043000009958091B20382FF34C080FF0DC088817F
:104310001F928F9388E790E19F938F930E941C0ACE
:104320000F900F900F900F907E0186E0E80EF11C29
:1043300002E710E18091B20380FF0BC08A811F92D7
:104340008F931F930F930E941C0A0F900F900F9052
:104350000F902196CE15DF0569F78091B20380FF9B
:1043600008C080E790E19F938F930E941C0A0F90F2
:104370000F90CDB7DEB7E6E00C942F2DEF92FF92B1
:104380000F931F93CF93DF93EC01E091D103F09152
:10439000D203309709F444C084819581892B09F4B4
:1043A0003FC086E088830480F581E02DCE01099529
:1043B0008091B20382FF34C080FF0DC089811F92BB
:1043C0008F938BE590E19F938F930E941C0A0F902F
:1043D0000F900F900F907E018EE1E80EF11C05E525
:1043E00010E18091B20380FF0BC08A811F928F93EE
:1043F0001F930F930E941C0A0F900F900F900F9025
:104400002196CE15DF0569F78091B20380FF08C0C1
:1044100083E590E19F938F930E941C0A0F900F9069
:10442000CDB7DEB7E6E00C942F2DE091D103F091EB
:10443000D203309759F026813781232B39F022E0BF
:10444000DC012C930680F781E02D09950895A3E007
:10445000B0E0EDE2F2E20C94172D2091CF03309101
:10446000D00328173907B1F09093D0038093CF037E
:10447000E091D103F091D203309761F00084F1858F
:10448000E02D309739F023E029839B838A83CE0186
:10449000019609952396E2E00C94332DA3E0B0E059
:1044A000E4E5F2E20C94172D2091CD033091CE0378
:1044B00028173907B1F09093CE038093CD03E09194
:1044C000D103F091D203309761F00084F185E02DA3
:1044D000309739F024E029839B838A83CE010196AB
:1044E00009952396E2E00C94332DCF93DF93C0918E
:1044F0000201D09103012296DBDE882381F08091B6
:10450000230587FF0CC0C0910001D09101012296C4
:104510009EE180E0915028F4DF91CF91089596E0DC
:10452000F8CF29912223B1F38F5FF4CFCF93C82F17
:10453000811102C080E023C0BBDE882311F180918D
:10454000230587FF1EC0EC2FE695E695E695EE3134
:1045500088F78091000190910101E80FF92FF11D7A
:10456000228130E0C77081E090E002C0880F991F7F
:10457000CA95E2F72823392381E0232BD9F2CF9182
:1045800008958091020190910301FC0132960896F2
:1045900021912C1721F0E817F907D1F7CBCF81E053
:1045A000EECF9C01FC0132969FEF80E041914617CF
:1045B00051F09F3F19F4411101C0982F8F5F863051
:1045C000A9F79F3F09F40895290F311D97FD3A95EA
:1045D000F90162830895FC01329608962191261311
:1045E00003C0DF0111971C92E817F907B9F7089586
:1045F000E62FE695E695E695EE3170F4E80FF92F93
:10460000F11D677021E030E001C0220F6A95EAF7E2
:104610008281822B828308958091B20380FF0CC037
:104620001F926F938FEA90E19F938F930E941C0AD1
:104630000F900F900F900F900895E62FE695E69556
:10464000E695EE3178F4E80FF92FF11D677021E05F
:1046500030E001C0220F6A95EAF720958281282375
:10466000228308958091B20380FF0CC01F926F9344
:1046700081E990E19F938F930E941C0A0F900F9005
:104680000F900F900895CF93C82F12DE6C2F8823C0
:1046900059F08091230587FF07C080910001909118
:1046A0000101A6DFCF91089580910201909103014D
:1046B00078DFF8CFCF93C82FFBDD6C2F882359F01C
:1046C0008091230587FF07C080910001909101012F
:1046D000B4DFCF91089580910201909103017BDFB7
:1046E000F8CFE6DD882379F08091230587FF0BC0A2
:1046F000E0910001F091010132968EE1DF011D92FF
:104700008A95E9F70895E0910201F091030132964C
:1047100086E0F4CFDC01FB0111969C911197818119
:10472000981322C012968C911297882319F09281C7
:1047300089131AC013968C911397882319F09381CB
:10474000891312C015968C911597882319F09581BD
:1047500089130AC014969C91992321F081E0248149
:10476000291303C080E001C081E08170089508959D
:10477000FECF089581110CC081E080930F016091FC
:104780000C0170910D0180910E0190910F01F0CFFD
:1047900082E0F3CF83E080930F0160910C01709170
:1047A0000D0180910E0190910F01E2CFE3CF0895AA
:1047B00081E080930F0160910C0170910D01809157
:1047C0000E0190910F01D4CFF3CF089591E08111A4
:1047D00001C090E090930E0160910C0170910D0169
:1047E00080910E0190910F01C3CF80910E01089529
:1047F00080930D0160910C0170910D0180910E016B
:1048000090910F01B5CF80910D01089580930C0117
:1048100060910C0170910D0180910E0190910F013A
:10482000A7CF80910C01089508950895FECF0895B3
:1048300008950895F9CF0895CF93FADF0E94EF18F5
:10484000F8DFC0E08C2F0E947118892B31F4CF5F04
:10485000C530C1F780E0CF91089581E0FCCFCF93C0
:10486000DF93EC016BD08C1B9D0BDF91CF910895F2
:1048700085B7806885BF85B7806885BF08951F921A
:104880001FB61F9211248F939F93AF93BF93809174
:10489000D303811113C08091390590913A05A091FD
:1048A0003B05B0913C054196A11DB11D8093390592
:1048B00090933A05A0933B05B0933C05BF91AF910F
:1048C0009F918F911F901FBE1F9018958091410559
:1048D000843031F10E94D50B1092D30388E190E02F
:1048E00020E40FB6F894A895809360000FBE209343
:1048F000600083B7817F846083BF83B7816083BF9B
:104900007894889583B78E7F83BF0FB6F894A89567
:1049100080916000886180936000109260000FBEFB
:1049200008950E94330F0C94D90B82E084BD93E06C
:1049300095BD9AEF97BD80936E0008952FB7F894B8
:104940008091390590913A05A0913B05B0913C05C5
:104950002FBF08952FB7F8946091390570913A05EB
:1049600080913B0590913C052FBF089578941F924C
:104970001FB61F9211248F939F93AF93BF93809183
:10498000390590913A05A0913B05B0913C050196FF
:10499000A11DB11D8093390590933A05A0933B0565
:1049A000B0933C05BF91AF919F918F911F901FBE17
:1049B0001F90189587E797E7909301088093000868
:1049C00088E19AE00FB6F894A895809360000FBE36
:1049D00090936000FFCF88E19AE00FB6F894A89515
:1049E000809360000FBE90936000FFCF9B01AC01ED
:1049F000F89460E079E08DE390E0E1D7215031094F
:104A00004109510956954795379527952093CC0034
:104A100082E08093C80088E98093C90086E0809393
:104A2000CA0010921604109217041092D403109228
:104A3000D50378940895909117049F5F20911604F0
:104A4000291303C00FB607FE0EC0209116042917C4
:104A5000E1F3E92FF0E0E85EFB4F808390931704C9
:104A600088EB8093C90008959091D5038091D40379
:104A70009817D1F39091D4039F5F903408F090E0A1
:104A8000E92FF0E0EA52FC4F80819093D40308951F
:104A90005091D5034091D403852F90E0242F30E02E
:104AA000541748F0AC01421B530B81E01416150655
:104AB0000CF080E00895805C9F4FF4CF8F938FB708
:104AC0008F939F93EF93FF93909117048091160417
:104AD00098130AC088E98093C900FF91EF919F91D4
:104AE0008F918FBF8F911895809116048F5FE82F5B
:104AF000F0E0E85EFB4F90819093CE008093160427
:104B0000ECCF2F932FB72F938F939F93EF93FF9318
:104B10009091CE008091D5038F5F803408F080E0C3
:104B20002091D403281739F0E82FF0E0EA52FC4F27
:104B300090838093D503FF91EF919F918F912F9157
:104B40002FBF2F9118959B01BA0190914105943088
:104B5000E1F48F708093E9009FEF8091E80091501D
:104B600085FD06C085ED8A95F1F700009111F5CF1E
:104B70008091E80085FF09C050E040E0C90197D26C
:104B80008091E8008E778093E800089543E050E03C
:104B9000BC0182E0D8CF46E050E0BC0182E0D3CF38
:104BA00040E250E0BC0182E0CECFCF93DF93EC0136
:104BB0001CDE48E050E0BE0181E0C5DF88E0FE0178
:104BC000ABE1B5E001900D928A95E1F7DF91CF91CD
:104BD0000895089583EF90E19F938F930E941C0A9C
:104BE000809140050F900F90811107C0EED345D4FE
:104BF0008091E20084608093E20008958FEE90E15E
:104C00009F938F930E941C0A109240050F900F9063
:104C100008958BEE90E19F938F930E941C0AC8DD4C
:104C200081E0D4DD0F900F90089587EE90E19F937F
:104C30008F930E941C0A60913D0581E0611101C0C3
:104C400080E0A8DD0F900F90089583EE90E19F9390
:104C50008F930E941C0A9091410581E0943009F0E5
:104C600080E060913D05A2DD0F900F9008952091A6
:104C700019052F5F822F62E383D6992319F02093C1
:104C8000190508951092190580911A058823F1F0ED
:104C9000809141058430C1F49091E9009F7020918A
:104CA000EC00822F817020FD80E8892B93E09093A7
:104CB000E9009091EB0090FF04C09091EE0097FD09
:104CC00008C08F708093E90010921A050895109221
:104CD000F1009091E80095FDFACF9091E80090FFE7
:104CE000F0CF9091E8009E779093E800EACF42E001
:104CF00061EC81E0E6D242E261EC82E0E2D242E2A3
:104D000061EC83E0DED29091410581E0943009F0BE
:104D100080E060913D052ECD80914305833009F4FC
:104D20005EC030F48130C1F1823009F494C008953E
:104D30008A3009F483C08B3009F46BC0893009F0E4
:104D40004DC080914205813209F048C080914605EE
:104D500090914705029708F041C08091E800877F55
:104D60008093E8008091E80082FF34C09091F300C6
:104D70008091F200029731F48091F100813011F0BE
:104D8000863019F48091F10033DD8091E8008B7753
:104D90008093E800CAD222C080914205813AF1F4A2
:104DA0008091E800877F8093E8008091460590918C
:104DB0004705892B59F468E08BE195E070E0C4D198
:104DC0008091E8008B778093E800089560E090E0A0
:104DD00080E0F4CF809141058111C4CF0895809186
:104DE0004205813AD9F78091460590914705892B74
:104DF000A9F78091E800877F8093E8008091E80020
:104E000080FFFCCFF2DC8093F1008091E8008E7788
:104E1000BFCF80914205813209F78091460590917C
:104E20004705892BD9F68091E800877F8093E800B9
:104E30007CD280914405CADC0C94330F80914205EA
:104E4000813261F68091E800877F8093E8006DD21F
:104E500080914505DBCC80914205813A09F0BECFB7
:104E60008091E800877F8093E8008091E80080FFD0
:104E7000FCCFD7DCC8CF9FB7F89410921A059FBF1C
:104E800090914105943009F048C02091E9002F70BD
:104E90003091EC00932F917030FD90E8922B23E03D
:104EA0002093E9002091EB0020FF34C02091EE0018
:104EB00027FF30C020911805222321F02091E8001F
:104EC00025FF28C01092180526E03091E80035FF34
:104ED00014C08093F1008091E80085FD27C0809187
:104EE000E80080FFFCCF8091E8008E778093E80097
:104EF0009F709093E90080E008953091410534302F
:104F000049F43091EB0035FD05C0215041F481E0BA
:104F1000809318059F709093E9008FEF0895EFE953
:104F2000FFE03197F1F700C00000CFCF8FB7F894C2
:104F300021E020931A058FBFDBCF84B7877F84BF22
:104F40000FB6F894A8958091600088618093600006
:104F5000109260000FBE80E890E00FB6F894809346
:104F60006100909361000FBE2FCC2FD286D2E2EE6B
:104F7000F0E08081846080837894E8C480E191E0EF
:104F800092C980914105853089F48091B20380FFF8
:104F900008C08DEC90E19F938F930E941C0A0F90A4
:104FA0000F9080914105853011F0BBCC08958EDCC7
:104FB00043DC8823B1F380913F05882391F361D0CE
:104FC0000E94330FEECF08959A0140914805509109
:104FD000490500C0492F55274330510521F168F498
:104FE0004130510509F443C04230510509F444C031
:104FF00090E080E050E040E026C04132510551F1A0
:1050000042325105A9F76330710590F7FB01EE0FAD
:10501000FF1FE953FD4F408151816C537D4FFB01D0
:10502000808190E010C099278130910581F0009730
:1050300029F00297E9F6E7EFF0E102C0E7E3F1E1DA
:10504000849190E0AF01F901518340830895E7E135
:10505000F1E1F6CF6330710558F6660F771FFB015B
:10506000E353FD4F4081518189E090E0ECCF82E134
:1050700090E04FE851E1E7CF84E590E04BE351E168
:10508000E2CF80E189BD82E189BD09B400FEFDCF98
:105090008091D8008F7D8093D8008091E00082605D
:1050A0008093E0008091E00081FDFCCF0895AF92F5
:1050B000BF92CF92DF92FF920F931F93CF93DF9314
:1050C0006C01EB018A0150D1F82E811123C001152A
:1050D000110539F0F80180819181C81BD90BC80EE8
:1050E000D91EB12CA12C2097A9F08091E80085FD54
:1050F00021C08091E8008E778093E80001151105AA
:10510000A1F0F80180819181A80EB91EB182A08220
:1051100085E0F82E8F2DDF91CF911F910F91FF9099
:10512000DF90CF90BF90AF9008951ED18823D9F221
:10513000F82EF0CFF60181916F018093F100219755
:10514000FFEFAF1ABF0ACFCFFC01809148059091C5
:10515000490586179707A0F06115710529F490910C
:10516000E8009E779093E80090E06115710551F496
:10517000911108C08091E80082FF34C080E008955A
:10518000BC01F2CF809141058823C1F18530C1F186
:105190008091E80083FD30C08091E80082FDEACF75
:1051A0008091E80080FFE1CF8091F3002091F20030
:1051B000382F6115710519F02830310558F091E04C
:1051C0002830310509F090E02091E8002E772093F7
:1051D000E800CBCF81918093F100615071092F5F7E
:1051E0003F4FE7CF80914105882341F0853041F062
:1051F0008091E80083FFBECF81E0089582E00895AA
:1052000083E00895FC018091480590914905861737
:105210009707A0F06115710529F48091E8008E7759
:105220008093E80090E06115710551F4911108C078
:105230008091E80082FF35C080E00895BC01F2CF84
:10524000809141058823C9F18530C9F18091E8003A
:1052500083FD31C08091E80082FDEACF8091E800B3
:1052600080FFE1CF8091F3002091F200382F61158B
:10527000710519F02830310558F091E028303105DA
:1052800009F090E08091E8008E778093E800CBCF22
:1052900084918093F1003196615071092F5F3F4FE7
:1052A000E6CF80914105882341F0853041F080911F
:1052B000E80083FFBDCF81E0089582E0089583E098
:1052C0000895982F973028F08F708093E90081E03F
:1052D00008959093E900242F762F50E0981731F02D
:1052E0007091EC002091ED005091F00021FD02C082
:1052F0009F5FE8CF3091EB003E7F3093EB00309121
:10530000ED003D7F3093ED003091EB003160309344
:10531000EB007093EC002093ED005093F00020918F
:10532000EE0027FDE5CF80E008958091420587FFDC
:1053300013C08091E80082FF06C08091E8008B775F
:105340008093E80004C0809141058111F2CF089557
:10535000809141058823D9F38091E80080FFF8CF40
:105360008091E8008E77ECCF2091E4003091E50049
:1053700095E6A9012091EC00822F817020FF06C0E4
:105380008091E80080FF06C080E008952091E80049
:1053900022FD1AC080914105882389F0853089F06B
:1053A0008091EB0085FD0FC02091E4003091E50075
:1053B00042175307F9F29150E1F684E0089582E034
:1053C000089583E0089581E0089567D06ED0E0EEFF
:1053D000F0E0808181608083E8EDF0E080818F776C
:1053E000808319BCA7EDB0E08C918E7F8C93808177
:1053F0008F7E80831092400508950F931F93CF9363
:10540000DF934BD052D0C8EDD0E088818F7788836E
:1054100088818068888388818F7D888319BC1092F9
:10542000410510923D0510923F0510923E0500EE99
:1054300010E0F80180818B7F808388818160888380
:1054400042E060E080E03DDFE1EEF0E080818E7FD1
:105450008083E2EEF0E080818160808380818860DB
:105460008083F80180818E7F80838881806188833A
:10547000DF91CF911F910F910895E8EDF0E08081C9
:105480008F7E8083E7EDF0E080818160808384E01F
:1054900082BF81E080934005B0CFE8EDF0E08081ED
:1054A0008E7F80831092E20008951092DA001092AD
:1054B000E10008951F920F920FB60F9211242F93BF
:1054C0003F934F935F936F937F938F939F93AF938C
:1054D000BF93EF93FF938091E10082FF0AC0809118
:1054E000E20082FF06C08091E1008B7F8093E100A3
:1054F000BEDB8091DA0080FF18C08091D80080FF69
:1055000014C08091DA008E7F8093DA008091D900F8
:1055100080FF91C080E189BD82E189BD09B400FEB0
:10552000FDCF81E08093410555DB8091E10080FF54
:1055300018C08091E20080FF14C08091E2008E7F4D
:105540008093E2008091E20080618093E20080918C
:10555000D80080628093D80019BC85E08093410513
:1055600064DB8091E10084FF2AC08091E20084FF27
:1055700026C080E189BD82E189BD89B5982F9170EF
:1055800080FFFBCF8091D8008F7D8093D8008091E1
:10559000E1008F7E8093E1008091E2008F7E809316
:1055A000E2008091E20081608093E20080913D05FD
:1055B000882309F445C084E08093410546DB80914F
:1055C000E10083FF27C08091E20083FF23C0809128
:1055D000E100877F8093E10082E080934105109293
:1055E0003D058091E1008E7F8093E1008091E20093
:1055F0008E7F8093E2008091E20080618093E200E0
:1056000042E060E080E05DDE8091F00088608093A1
:10561000F000FFDAFF91EF91BF91AF919F918F91D1
:105620007F916F915F914F913F912F910F900FBE9E
:105630000F901F90189519BC10924105DFDA75CFB5
:105640008091E30087FD93E090934105B7CF1F92CF
:105650000F920FB60F9211242F933F934F935F93A6
:105660006F937F938F939F93AF93BF93CF93DF936A
:10567000EF93FF93D091E900DF708091EC00C82F89
:10568000C17080FDC0E81092E9008091F000877F32
:105690008093F00078941ED01092E9008091F00081
:1056A00088608093F000CD2BCF70C093E900FF910C
:1056B000EF91DF91CF91BF91AF919F918F917F91AA
:1056C0006F915F914F913F912F910F900FBE0F906F
:1056D0001F901895AAE2B0E0EFE6FBE2A7C182E4D2
:1056E00095E02091F100FC012193CF01F5E08A348F
:1056F0009F07B9F711DB8091E80083FF16C1809105
:105700004205909143059A3008F00FC1E92FF0E06F
:10571000E75EF14D76C1803899F0823809F005C115
:10572000809146058F70873008F0FFC08093E900B4
:105730008091EB0085FB882780F91092E90006C074
:1057400080913E0590913F05911182609091E80013
:10575000977F9093E8008093F1001092F100809180
:10576000E8008E77DFC0882309F4CDC0823009F0CD
:10577000DCC0809144058111D0C0809146058F70B6
:105780002FEF280F263008F0D0C08093E900209139
:10579000EB0020FFC2C0933031F48091EB008062B7
:1057A0008093EB00BAC09091EB0090619093EB0076
:1057B00021E030E001C0220F8A95EAF72093EA0049
:1057C0001092EA008091EB008860EACF8111ADC0B1
:1057D000109144051F778091E3008078812B80939E
:1057E000E3008091E800877F8093E8009EDD809150
:1057F000E80080FFFCCF8091E30080688093E300A5
:1058000082E0111183E0809341058FC0805882307F
:1058100008F08BC080914405909145058C3D23E0B4
:10582000920799F583E08A838AE289834FB7F894D7
:10583000DE01139620E03EE051E2E32FF0E05093CA
:105840005700E49120FF03C0E295EF703F5FEF70D7
:105850008E2F90E0EA30B8F0C7968D939D932F5F1E
:10586000243159F74FBF8091E800877F8093E8008B
:105870006AE270E0CE01019667DC8091E8008B77E8
:105880008093E80052C0C096E8CF609146057091C1
:105890004705AE014F5F5F4F97DBBC01892B09F4D1
:1058A00044C09091E800977F9093E80089819A81A5
:1058B000A9DCE3CF8038C9F58091E800877F809329
:1058C000E80080913D058093F10049CF81112DC002
:1058D00090914405923048F58091E800877F80934D
:1058E000E80090933D0521DD80913D05882311F06E
:1058F00084E005C08091E30087FDFACF81E08093CA
:105900004105F5D912C080914405813071F481E0E0
:10591000933009F080E080933F051092E900809178
:10592000E800877F8093E80000DD8091E80083FF36
:105930000AC08091E800877F8093E8008091EB00A7
:1059400080628093EB00AA96E3E08CC0CF938091B5
:105950004105882399F0C091E900CF709091EC0047
:10596000892F817090FD80E8C82B1092E90080910A
:10597000E80083FDAFDECF70C093E900CF910895BA
:10598000991B79E004C0991F961708F0961B881F91
:105990007A95C9F78095089597FB072E16F4009421
:1059A00006D077FD08D06AD007FC05D03EF490956C
:1059B00081959F4F0895709561957F4F0895A1E25D
:1059C0001A2EAA1BBB1BFD010DC0AA1FBB1FEE1F79
:1059D000FF1FA217B307E407F50720F0A21BB30BC4
:1059E000E40BF50B661F771F881F991F1A9469F740
:1059F00060957095809590959B01AC01BD01CF019C
:105A00000895EE0FFF1F0590F491E02D09942F9259
:105A10003F924F925F926F927F928F929F92AF923E
:105A2000BF92CF92DF92EF92FF920F931F93CF938B
:105A3000DF93CDB7DEB7CA1BDB0B0FB6F894DEBF22
:105A40000FBECDBF09942A88398848885F846E8448
:105A50007D848C849B84AA84B984C884DF80EE8092
:105A6000FD800C811B81AA81B981CE0FD11D0FB69B
:105A7000F894DEBF0FBECDBFED010895AA1BBB1B7E
:105A800051E107C0AA1FBB1FA617B70710F0A61B3E
:105A9000B70B881F991F5A95A9F780959095BC015F
:105AA000CD010895FB01DC0104C08D9101908019A6
:105AB00021F441505040C8F7881B990B0895FB0111
:105AC000DC0102C001900D9241505040D8F708957A
:105AD000F999FECF92BD81BDF89A992780B50895B6
:105AE000A8E1B0E042E050E020C0262FF999FECFB7
:105AF00092BD81BDF89A019700B4021639F01FBA21
:105B000020BD0FB6F894FA9AF99A0FBE089503963D
:105B1000272FECDFEADF252FE9DF242FE7CF0196DF
:105B2000272FE4DFE2CFDC01CB01FC01F999FECFA6
:105B300006C0F2BDE1BDF89A319600B40D92415015
:105B40005040B8F70895F894FFCF670D670D9D0D8D
:105B50009D0DF60D120E8F0D8F0D160E7F0E8B0EF6
:105B60008B0E9A1B7E1BA31BF31A401C401C771B39
:105B7000401C401CD31B401CE31B271C401C401C2A
:105B8000401C401C031C401C401CF31B401CBC1B45
:105B9000401C401C3E1C3E1C3E1C3E1C3E1C3E1C31
:105BA0003E1C3E1C3E1C391C401C9A1B6D1B401C9D
:105BB000401C401C401C401C401C401C401C401C05
:105BC000401C391C401C401C771B401C3C1C3C1CCE
:105BD0003C1C3C1C3C1C3C1C3C1C3C1C3C1C391C08
:105BE000261D981D2E1DF81CFC1C321D001D361D87
:105BF000421D0C1D911D101D461D141D4A1D721DB8
:105C0000181D4E1D791D1E1D541D5C1D041D3A1DC1
:105C1000081D3E1D221D581D681D821D8F1DF21C72
:105C20002A1D9F1D2C2132211C21262138213E2195
:105C300044218B2BB32B952CB32B952CE62B062CC8
:065C4000952C5A2C662C85
:105C460074039403280850011E0A14010000010081
:105C56000324D525D025CB25C625E200E900EA0098
:105C6600B500B600B700CD008301CC008A019201D1
:105C760094012102230224022502260227022A0277
:105C8600B300B4006F0070009F01CB019F02A00219
:105C9600818283E200E900EA00B500B600B700CDD4
:105CA600008301CC008A019201940121022302247F
:105CB600022502260227022A02B300B4006F0070F2
:105CC600009F01CB019F02A0028182833F3F3F00DC
:105CD6006D6B5F64656C6179006D6B5F696E746591
:105CE6007276616C006D6B5F6D61785F7370656570
:105CF60064006D6B5F74696D655F746F5F6D61786D
:105D0600006D6B5F776865656C5F6D61785F73705A
:105D1600656564006D6B5F776865656C5F74696D5A
:105D2600655F746F5F6D6178000A092D2056657294
:105D360073696F6E202D0A5649443A2030783444F0
:105D4600343428224D61747469612044616C2042A8
:105D5600656E2229205049443A203078353235374D
:105D660028225265646F7820576972656C65737373
:105D76002229205645523A203078303030310A42B6
:105D860055494C443A20202841756720203120325D
:105D9600303235290A4F5054494F4E533A204C550C
:105DA600464120424F4F544D41474943204D4F55A0
:105DB60053454B45592045585452414B455920436C
:105DC6004F4E534F4C4520434F4D4D414E44204E70
:105DD6004B524F20343039360A4743433A20382E47
:105DE600332E30204156522D4C4942433A20322E12
:105DF600302E30204156525F415243483A20617658
:105E060072350A0044B6156C12B611A1114D116611
