:100000000C9458090C9475090C9475090C94750995
:100010000C9475090C9475090C9475090C94750968
:100020000C9475090C9475090C947A2B0C944E2C35
:100030000C941A250C9475090C9475090C94750987
:100040000C9475090C9475090C9475090C94750938
:100050000C9475090C94A1250C9475090C947509E0
:100060000C9475090C946D260C944A260C94750911
:100070000C9475090C9475090C9475090C94750908
:100080000C9475090C9475090C9475090C947509F8
:100090000C9475090C9475090C9475090C947509E8
:1000A0000C9475090C9475090C94750935001E00A3
:1000B0001F0020002100220029002F5223002400CD
:1000C0002500260027002D002B0014001A00080030
:1000D00015001700284B284B1C0018000C001200BC
:1000E000380033004A4C04001600070009000A00DB
:1000F000005203520B000D000E000F0034004D4C57
:10010000E1001D001B0006001900050001526500FA
:1001100011001000360037001300E500E3000D5217
:1001200049004C00E0002C00E200E4002A00E0045A
:100130005000510052004F0001001E001F0020001F
:1001400021002200010001002300240025002600D8
:1001500027000100010014001A0008001500170014
:10016000010001001C0018000C0012003800010002
:100170004A4E04001600070009000A0001000100B1
:100180000B000D000E000F003400010001001D00E7
:100190001B000600190005000100010011001000FD
:1001A00036003700130001000100010001000100CA
:1001B0000100010001000100010001000100010037
:1001C0000100010001000100010001000100010027
:1001D0000100010001000100010001000100010017
:1001E0000100010001000100010001000100010007
:1001F00001000100010001000100010001000100F7
:1002000001000100010001000100010001000100E6
:1002100001000100010001000100010001000100D6
:1002200001000100010001000100010001000100C6
:1002300001000100010001000100010001000100B6
:1002400001000100010001000100010001000100A6
:1002500001001E001F0020002100220001000100FB
:1002600023002400250026002700010001001400BF
:1002700008001A0015001700010001001C001800FA
:100280000C001200380001004A4E34000400160031
:1002900007000A00010001000B000D000E000F0016
:1002A0003400010001001D001B00060019000500BC
:1002B000010001001100100036003700130001009A
:1002C0000100010001000100010001000100010026
:1002D0000100010001000100010001000100010016
:1002E0000100010001000100010001000100010006
:1002F00001000100010001000100010001000100F6
:1006B0000100E000430044004500E00001000100AB
:1006C000E000430044004500E00001000100E000BC
:1006D000400041004200E00001000100E000400055
:1006E00041004200E00001000100E0003D003E004A
:1006F0003F00E00001000100E0003D003E003F003F
:10070000E00001000100E0003A003B003C00E00096
:1007100001000100E0003A003B003C00E000010065
:1007200001000100010001000100010001000100C1
:100730000100010001000100010001003900240254
:100740001F02550031003102010001000100D900F3
:100750003E00DA000100010023022D002F022602D4
:10076000270230020100010001004A0052004D0042
:1007700001000100010057002F003602370230004F
:10078000010001000100500051004F000100010074
:100790000100210222022D022E0020020100010090
:1007A0000100010001000100010001000100010041
:1007B0000100010001000100010001000100010031
:1007C00001000100010001000100010056003E008F
:1007D00057002C00010001002B13B6003E00B700AB
:1007E0002B01010001004A004D0052004B0017137D
:1007F000010001004B004A0052004D0001000100C1
:1008000001002B132B0151004E001A0101000100C1
:100810004E00500051004F00010001000100B600E1
:10082000B70050004F000900010001000100010065
:1008300001000100010001000100010001000100B0
:1008400001000100010001000100010001000100A0
:10085000010001002D0027002600250024002300B0
:100860000100010001000100010001000100010080
:100870003300130012000C0018001C0001000100DE
:10088000010001000100010001000100010034002D
:100890000F000E000D000B0001000100010001001F
:1008A000010001000100010001003800370036009E
:1008B0001000110001000100010001000100010011
:1008C0000100010001000100010001000100010020
:1008D0000100010001000100010001000100010010
:1008E000005201520252035204520552405201007A
:1008F0004152425243524452455240520000065225
:100900000752085209520A520000007C46524752D0
:10091000485249524A52405200000B520C520D525A
:100920000E520F52010001004B524C524D524E528A
:100930004F52000000000000000000000000000016
:1009400001000100000000000000000000000000A5
:100950000000010000000000000000000000000096
:100960000000000000000000000000004445425567
:10097000473A2064697361626C65642E0A004445DD
:100980004255473A20656E61626C65642E0A006CC0
:1009900065645F7461736B3A20253032580A004FEA
:1009A0006E6573686F743A2074696D656F75740A4B
:1009B000004F6E6573686F743A2061637469766581
:1009C0003A2025640A000A002530313662003A20B8
:1009D0000025303258000A722F6320303132333410
:1009E00035363738394142434445460A00313A09E1
:1009F00064656C6179282A31306D73293A20257538
:100A00000A323A09696E74657276616C286D7329D1
:100A10003A2025750A333A096D61785F7370656510
:100A2000643A2025750A343A0974696D655F746FFC
:100A30005F6D61783A2025750A353A0977686565F2
:100A40006C5F6D61785F73706565643A2025750A27
:100A5000363A09776865656C5F74696D655F746FB8
:100A60005F6D61783A2025750A00703A09707269E5
:100A70006E742076616C7565730A643A09736574E7
:100A80002064656661756C74730A75703A092B3160
:100A90000A646E3A092D310A6C743A092B31300A16
:100AA00072743A092D31300A4553432F713A097156
:100AB0007569740A0A7370656564203D2064656C0D
:100AC0007461202A206D61785F7370656564202AE7
:100AD0002028726570656174202F2074696D655FD0
:100AE000746F5F6D6178290A776865726520646547
:100AF0006C74613A20637572736F723D25642C20AB
:100B0000776865656C3D25640A5365652068747473
:100B1000703A2F2F656E2E77696B69706564696115
:100B20002E6F72672F77696B692F4D6F7573655FD5
:100B30006B6579730A004D3E20004D25753A25738B
:100B40003E20003F0A003D2025750A003F0A006450
:100B5000656661756C74730A0025750A003F0A00AA
:100B60000A092D2056616C756573202D0A00710AE3
:100B7000000A092D204D6F7573656B6579202D0A6C
:100B8000003F00433E20004C25640A000A092D2046
:100B9000537461747573202D0A686F73745F6B658D
:100BA00079626F6172645F6C65647328293A2025ED
:100BB0003032580A6B6579626F6172645F70726F70
:100BC000746F636F6C3A20253032580A6B65796216
:100BD0006F6172645F69646C653A20253032580A2F
:100BE0006B65796D61705F636F6E6669672E6E6BA2
:100BF000726F3A20253032580A74696D65725F72DF
:100C0000656164333228293A202530386C580A004F
:100C10002573000A092D20436F6E736F6C65202DBC
:100C20000A4553432F713A09717569740A6D3A097F
:100C30006D6F7573656B65790A000A092D204D612A
:100C4000676963202D0A443A094465627567204D3F
:100C500065737361676520546F67676C650A583AFE
:100C6000094D6174726978204465627567204D6F23
:100C7000646520546F67676C65202D2053686F771B
:100C8000206B65797072657373657320696E206D72
:100C9000617472697820677269640A4B3A094B651E
:100CA00079626F61726420446562756720546F6772
:100CB000676C65202D2053686F77206B65797072A3
:100CC000657373207265706F72740A4D3A094465DA
:100CD000627567204D6F75736520546F67676C652B
:100CE0000A563A0956657273696F6E0A533A095388
:100CF00074617475730A433A094163746976617467
:100D00006520436F6E736F6C65204D6F64650A4696
:100D1000312D4631303A0953776974636820746F16
:100D2000204C6179657220302D39202846313020E1
:100D30003D204C30290A302D393A095377697463C4
:100D40006820746F204C6179657220302D390A4714
:100D5000524156453A0953776974636820746F208D
:100D60004C6179657220302028616C7465726E6107
:100D70007465290A423A094A756D7020746F2042E1
:100D80006F6F746C6F616465720A4553433A094A28
:100D9000756D7020746F20426F6F746C6F61646545
:100DA000722028616C7465726E617465290A453A17
:100DB000095072696E7420454550524F4D2053655D
:100DC0007474696E67730A4241434B535041434503
:100DD0003A09436C65617220454550524F4D0A4EA9
:100DE0003A094E4B524F20546F67676C650A006B8F
:100DF00065796D61705F636F6E6669672E7261778A
:100E00003A20253032580A2E737761705F636F6E17
:100E100074726F6C5F636170736C6F636B3A2025E3
:100E2000750A2E636170736C6F636B5F746F5F63C1
:100E30006F6E74726F6C3A2025750A2E737761702D
:100E40005F6C63746C5F6C6775693A2025750A2E58
:100E5000737761705F7263746C5F726775693A2053
:100E600025750A2E737761705F6C616C745F6C67B7
:100E700075693A2025750A2E737761705F72616C0F
:100E8000745F726775693A2025750A2E6E6F5F6709
:100E900075693A2025750A2E737761705F677261F4
:100EA00076655F6573633A2025750A2E73776170E6
:100EB0005F6261636B736C6173685F6261636B73C4
:100EC000706163653A2025750A2E6E6B726F3A2049
:100ED00025750A2E737761705F6573636170655F56
:100EE000636170736C6F636B3A2025750A006465EB
:100EF0006275675F636F6E6669672E7261773A200D
:100F0000253032580A2E656E61626C653A2025756F
:100F10000A2E6D61747269783A2025750A2E6B6508
:100F200079626F6172643A2025750A2E6D6F757350
:100F3000653A2025750A006565636F6E6669673AD4
:100F40000A64656661756C745F6C617965723A20DC
:100F500025750A003F004E4B524F3A206F66660AD5
:100F6000004E4B524F3A206F6E0A000A6D6F757338
:100F7000653A206F66660A000A6D6F7573653A20E0
:100F80006F6E0A000A6B6579626F6172643A206F56
:100F900066660A000A6B6579626F6172643A206F57
:100FA0006E0A000A6D61747269783A206F66660A8B
:100FB000000A6D61747269783A206F6E0A000A64E3
:100FC000656275673A206F66660A000A6465627535
:100FD000673A206F6E0A000A0A4A756D70696E677B
:100FE00020746F20626F6F746C6F616465722E2E57
:100FF0002E2000433E2000436C656172696E6720BD
:10100000454550524F4D0A00290A002575002F0012
:101010002575005D2800256400200025640020005F
:1010200025640020002564007C0025303258006DC6
:101030006F7573656B6579205B62746E7C7820795F
:10104000207620685D287265702F61636C293A20D4
:101050005B000A002530325820006E6B726F5F72A1
:1010600065706F72743A2025303258207C20000A57
:10107000002530325820006B6579626F6172645FC1
:101080007265706F72743A2025303258207C2000CF
:1010900064656C5F6B65795F6269743A2063616E49
:1010A00027742064656C3A20253032580A00616448
:1010B000645F6B65795F6269743A2063616E27745F
:1010C000206164643A20253032580A0073757370C9
:1010D000656E64696E67206B6579626F6172640D1D
:1010E0000A005B575D005B535D005B525D005B4433
:1010F0005D005B435D001E035200650064006F00ED
:101100007800200057006900720065006C006500DF
:101110007300730000001E034D0061007400740032
:10112000690061002000440061006C002000420062
:1011300065006E0000000403090409025400030165
:1011400000A0FA09040000010301010009211101B6
:101150000001224400070581030800010904010081
:10116000010300000009211101000122B60007055A
:10117000820320000109040200010300000009218C
:10118000110100012215000705830320000112014F
:10119000000200000008444D575201000102000106
:1011A0000631FF0974A1010975150026FF0095207D
:1011B00075088102C005010902A10185020901A18A
:1011C00000050919012908150025019508750181F7
:1011D000020501093009311581257F9502750881C5
:1011E0000609381581257F950175088106050C0AC9
:1011F00038021581257F950175088106C0C005015B
:101200000980A101850319012AB700150126B7003D
:10121000950175108100C0050C0901A10185041913
:10122000012AA002150126A002950175108100C0B7
:1012300005010906A1018506050719E029E7150042
:1012400025019508750181020507190029EF150090
:10125000250195F0750181020508190129059505FB
:1012600075019102950175039101C005010906A15F
:1012700001050719E029E715002501950875018189
:10128000029501750881010507190029FF1500263F
:10129000FF0095067508810005081901290515004C
:1012A0002501950575019102950175039101C00015
:1012B00011241FBECFEFDAE0DEBFCDBF12E0A0E009
:1012C000B1E0EEEDFEE502C005900D92A03DB10744
:1012D000D9F725E0A0EDB2E001C01D92A934B20714
:1012E000E1F70E94361A0C94EF2E0C940000FF9345
:1012F000EF93E091D002F091D102309709F0099577
:10130000EF91FF910895FC018591803011F0EFDF9E
:10131000FBCF0895FF27E0E230E247FF0CC0419584
:1013200097FF09C0EDE26095709580959095611DDD
:10133000711D811D911D27FF02C0219530E350E2F0
:10134000AA27660F771F881F991FAA1FA41710F0DE
:10135000A41B63955A95A9F7AA3008F0A95FA05D70
:10136000AF93F395611571058105910541F7ED3254
:1013700011F4EF93F395F21718F43F93F395FBCF25
:101380008F91B5DFFA95E1F70895E991F99185918B
:10139000803021F0853219F0AADFF9CF089520E0DE
:1013A000E89455915532C1F3503311F46894559136
:1013B0005A3348F4505390F3220F022E220F220F7B
:1013C000200D250FF4CF0EF4219589919991533674
:1013D00019F3533729F1533559F1BC01882799275F
:1013E000E8945C3621F4899199916894559154362A
:1013F00039F446EF7EF077FF0DC08FEF9FEF0AC004
:1014000055374AE039F0583540E121F0523642E094
:1014100009F00895FF93EF937DDFEF91FF91B7CF30
:10142000FF93EF93FC0181918030B9F360DFFBCF34
:10143000FF93EF9368DFF1CFDF93CF93CDB7DEB7A4
:101440002596A3DFCF91DF91089560E472E48FE0E9
:1014500090E00E94E1250895ABE0B0E0E2E3FAE01D
:101460000C943E2E4C0183E70E9407268E010F5FED
:101470001F4F8BE0D8011D928A95E9F778015E0134
:10148000BCE0AB0EB11C6801412C512C32010E9412
:1014900034268823B1F180E1481687E258066104BA
:1014A0007104E0F50E942026D6018C93FFEFCF1A3D
:1014B000DF0ACA14DB0459F78B85803E91F5F401ED
:1014C000065F1F4F80E0D70111962C91B0E82B9F4B
:1014D00090011124D7019C91292B419151914217E0
:1014E000530709F081E0DF0112972D933C93B2E09E
:1014F000EB0EF11C0E151F0531F72B96E0E10C9455
:101500005A2EEFEF4E1A5E0A6E0A7E0AF1E14F166E
:10151000F7E25F066104710408F4B9CFF6011082A6
:10152000C5CF80E0EACF509A519A849A859A589A0A
:10153000599A8C9A8D9A08950E9454190E94930A80
:1015400008958031B8F46530A8F44E3098F450E036
:101550009EE0699F400D511D1124FA0196E4899F78
:10156000E00DF11D1124EE0FFF1FE455FF4F859193
:101570009491089581E090E008950E94A10A089551
:1015800081E008950E94C00A089581E008950E94B4
:10159000C00A08950E94C70A089508950E94CD0ABE
:1015A0000895A6E0B0E0E7EDFAE00C944B2E4983F5
:1015B0005A839E833091D70289819A8131111AC052
:1015C0003E81332399F0222389F00E94CB10182FFB
:1015D000682F89819A810E94A71069817A81812F61
:1015E0000E9452182696E3E00C94672E0E94B910D0
:1015F000182FF3CF0E94CB1069817A81F1CFFC01C3
:10160000262F4081518162817381848195810E945E
:10161000D10A0895CF93DF93EC0161E00E94FF0AA5
:10162000BE010E94C20ADF91CF910895CF93DF934C
:10163000EC0160E00E94FF0ABE010E94CE0ADF9129
:10164000CF91089581E008950E94220B0895CF93D1
:10165000C82F0E947C0F8C2F0E94240B2FEF84E355
:101660009CE0215080409040E1F700C00000CF9105
:10167000089581E00E94270B0E94C525089580E00F
:101680000E94270B0E94D62508950F931F93CF9396
:10169000DF938C0161E00E94FF0AEC01B8010E9417
:1016A000CA0A811106C080E0DF91CF911F910F918E
:1016B0000895B801CE010E9444228823A1F3B80105
:1016C000CE010E94D41D882371F3B801CE010E947F
:1016D000AA1D882341F3F8018581882369F0C3306E
:1016E000FCE7DF07A1F160F4C130ECE7DE0789F128
:1016F000C0F4C115DC4791F0C8010E94C50AD4CFDF
:10170000CB35ECE7DE0759F1CC35FCE7DF0721F1FB
:10171000CA35DC4789F70E948415EECF0E94390B49
:10172000C2CF9091AE03892F8E7F90FF816080930E
:10173000AE0380FF09C08EE799E09F938F930E94CC
:101740001C0A0F900F90AFCF8CE699E0F6CF0E9465
:101750008C150E943F0BA7CF0E947A15CDCF0E9417
:101760008815CACF0E94F6240E94FE0B08950E949D
:10177000020C0E94FB240895829590E09C01220FA8
:10178000331F220F331F2C7C959587959595879550
:101790008373282B30E0C901880F991F8A7A359509
:1017A00027952575822B0895CF93DF93D92F0E941B
:1017B000BC0BC82F8D2F0E94BC0B9C2FDF91CF91AB
:1017C0000895089581E008950895CF93DF93D82F69
:1017D0000E94E20BC82F882319F08D2F0E94E40B82
:1017E0008C2FDF91CF9108950895CF93C82F0E9439
:1017F000E10B8C2F0E94E50BCF91089580E00E94B1
:10180000F50B08950E948D220E94F50B0895CF9349
:101810000E948D22C82F8091D2028C1701F1C093B3
:10182000D2020E9486256093D3027093D4028093E3
:10183000D5029093D6028091AE038570853061F415
:101840001F92CF938FE899E09F938F930E941C0A79
:101850000F900F900F900F908C2F0E94F50BCF914F
:101860000895ADE0B0E0E7E3FCE00C944C2E48872F
:1018700059876A877B878C879D8791110E943D14C9
:101880001F8286E0FE013896DE01119601900D92CE
:101890008A95E1F78091230582FF0CC00E94001415
:1018A000882319F082E00E943B150E94E713811102
:1018B0000E9484148D8181110DC029813A814B8150
:1018C0005C816D817E818F810E9462132D96E2E0A2
:1018D0000C94682ECE0101960E940A0B8111EDCF67
:1018E000F5CFFC012481213021F4808191810E9477
:1018F000FD100895662329F00E94351F0E941A20CA
:1019000008950E94A11FFACFCF93C82F8823C1F05A
:101910008CEF8C0F813AB0F48C2F0E944A1D8111FC
:101920000FC08C2F0E94B423882329F08C2F0E9493
:1019300076240E9401158C2F0E945F240E940115BD
:10194000CF91089580E28C0F883048F4C77081E011
:1019500001C0880FCA95EAF70E942014EFCFEBE58B
:10196000EC0FE33040F4F0E0E35BFE4F808190E069
:101970000E944823E5CFE8E5EC0FEB3150F4F0E0AE
:10198000EE0FFF1FE95EFE4F808191810E946D2363
:10199000D7CF83E38C0F833198F661E08C2F0E94C0
:1019A0007A0CCECF882381F19CEF980F913A28F4DE
:1019B0000E9476240E940115089590E2980F9830B5
:1019C00050F4877091E001C0990F8A95EAF7892F4A
:1019D0000E942614EFCF9BE5980F933028F490E0F7
:1019E00080E00E944823089598E5980F9B3128F4E1
:1019F00090E080E00E946D23089593E3980F933167
:101A000018F460E00E947A0C08951F93CF93DF933F
:101A1000182FEB010E94840C209739F4812F0E942B
:101A2000D20CDF91CF911F9108958FE99FE001972C
:101A3000F1F700C000002197EFCF70E060E089333C
:101A400011F460E570E00E94050D0895882321F0EF
:101A50000E9420140E9401150895882321F00E94FD
:101A600026140E9401150895B0E0A0E0EAE3FDE02D
:101A70000C94452E6C01D62FC72FFC0115810681D1
:101A800002950F700E941614E82E8823F9F0E12EBB
:101A90001123E1F08C2F807F803461F080E28D0F84
:101AA000883008F18C2F807E803221F4D230D8F03B
:101AB0000023C9F08091230582FF15C082E00E94B7
:101AC0003B150E94161491E0E82EE926BC2EB29434
:101AD0009FE0B922FBE0FB15B8F1EB2DF0E0EF50F1
:101AE000F14D0C94362EE12CF1CF0C2F0F70C07FEE
:101AF00011F00295007F112399F0002359F080E244
:101B00008D0F883010F0D11107C0802F0E94201453
:101B10000E9401158D2F5AC0802F0E943014F8CFDB
:101B20008D2F0E94D20C002379F080E28D0F883037
:101B300010F0D11104C0802F0E94261403C0802F02
:101B40000E9436140E940115EB2DE850FF0B3497CC
:101B500020F40E948D220E94F50BEE2089F00E9455
:101B6000FC1380FD0DC0F60115820E94F6130E9441
:101B70000510C6010E94430F0E94F6130E94151023
:101B8000CDB7DEB7E9E00C94612E2C2F2F70F22E2A
:101B9000C07FC03219F0F29480EFF822DD2341F0CB
:101BA000D130D1F1112309F444C00023F1F0B2CFB8
:101BB0008091230582FD15C0112359F0FF2029F0E3
:101BC0008F2D0E9420140E94011580E00E94840C39
:101BD000BBCF80E00E94D20CFF2009F4B5CF8F2D3F
:101BE000ABCF112369F0011104C08F2D0E94260D87
:101BF000ABCF013009F0A8CF8F2D0E945414A4CF91
:101C00000111A2CF8F2D0E942D0D8F2D0E946B14DC
:101C10008F2D0E94441498CF112321F0063008F034
:101C200093CFE3CF053008F08FCF8F2D0E942D0D7D
:101C30008BCF0023D1F3D93349F43FEF87EE93E004
:101C4000315080409040E1F700C000008D2F0E948D
:101C5000D20C7ACF8C2F86958695837069F081306F
:101C600009F072CF8D2F9C2F9370111102C080E06C
:101C700090E00E946D2368CF8D2F9C2F93701111DF
:101C800002C080E090E00E9448235ECF612F8D2F3C
:101C90000E947A0C59CF8C2F8370A1F5111154CF6B
:101CA0004D2F429546954770440F440F2D2F2F70AE
:101CB00030E0042E02C0220F331F0A94E2F790E0B6
:101CC00080E0D4FF09C08FE090E002C0880F991F28
:101CD0004A95E2F780959095C695C695C370822B7C
:101CE000932BC23049F058F4C13019F00E94D50F3F
:101CF0002BCF0E94CC0F28CF0E94DE0F25CF0E9451
:101D0000C90F22CF8695112311F08C2F8170882363
:101D100009F41ACF4D2F429546954770440F440F52
:101D20002D2F2F7030E0042E02C0220F331F0A9493
:101D3000E2F790E080E0D4FF09C08FE090E002C0BD
:101D4000880F991F4A95E2F780959095C695C6959C
:101D5000C370822B932BC23049F058F4C13019F074
:101D60000E944010F1CE0E943710EECE0E94491022
:101D7000EBCE0E94ED0FE8CECF70112329F08C2F0F
:101D80000E9405108D2F32CF8D2F0E942D0D8C2F8C
:101D90000E941510D9CED23F41F160F4D03FB9F086
:101DA000D13F81F0112309F446C00111B3CE8C2F2D
:101DB0008F711FC0D33F01F1D43FA1F7809123055C
:101DC00082FD24C08C2F8F71112311F312C01123B7
:101DD00041F0053008F0B8CE8C2F8F710E9427108B
:101DE000B3CE063008F0B0CEF7CF8C2F8F71111123
:101DF000CFCF0E940510A8CE112329F08C2F8F7110
:101E00000E94F90FA1CE0E94F40F9ECE112349F03B
:101E1000CF718C2F0E94051063E08C2F0E94131548
:101E200093CE81E00E943B15023008F48DCE82E013
:101E30000E943B1589CE002359F0D93309F006CF13
:101E4000EFEFF7EE23E0E150F0402040E1F7FCCE69
:101E50008C2F8F719DCF0F931F93CF93DF93EC0146
:101E6000688179818D810E9408118C010E94521035
:101E70000E94C80FB801CE010E94340DDF91CF91AE
:101E80001F910F910895CF93DF93EC018C818823EC
:101E900099F0CE010E94450B811111C00E941614C9
:101EA000882351F08D81882339F08091230582FFAA
:101EB00003C082E00E943B15DF91CF910895CE01CF
:101EC0000E942B0FCE010E94160BF6CF90E080E00F
:101ED0000E94482390E080E00E946D230E943D1400
:101EE0000E9401150E94D0200E941A2008950E948D
:101EF0008D240E94660F08950E942D140E94770F72
:101F0000089592959F70963091F058F4925F9F706B
:101F1000923058F4803F19F030F4883E30F481E07C
:101F200008959A5FF4CF843FD1F380E00895883E0E
:101F3000B0F3813FD1F7F3CFFC012481222339F0A4
:101F4000808191810E94FD100E94810F089580E0A0
:101F50000895A6E0B0E0EFEAFFE00C944C2E269640
:101F6000E2E00C94682EA7E0B0E0E9EBFFE00C940F
:101F70004C2E2796E2E00C94682E08950E94BD0F27
:101F800008950E94BE0F9093FF028093FE02089571
:101F900008950E94C10F08952091FE023091FF0222
:101FA000822B932B0E94C10F08952091FE02309145
:101FB000FF02822393230E94C10F08952091FE0205
:101FC0003091FF02822793270E94C10F08950E943B
:101FD000BD0F08950E94E70F08950E94EA0F9093A5
:101FE000FD028093FC02089590E080E00E94ED0FD6
:101FF000089521E030E0A90102C0440F551F8A95E1
:10200000E2F7CA010E94ED0F089521E030E002C01E
:10201000220F331F8A95E2F78091FC029091FD0216
:10202000822B932B0E94ED0F089521E030E002C037
:10203000220F331F8A95E2F7209530958091FC029C
:102040009091FD02822393230E94ED0F089521E0D9
:1020500030E002C0220F331F8A95E2F78091FC0224
:102060009091FD02822793270E94ED0F0895209101
:10207000FC023091FD02822B932B0E94ED0F0895FC
:102080002091FC023091FD02822393230E94ED0FE8
:1020900008952091FC023091FD02822793270E942F
:1020A000ED0F08950895262F277091E001C0990F34
:1020B0002A95EAF723E0769567952A95E1F7660F6A
:1020C000771F660F771FFA01E60FF71F50E040E019
:1020D000682F70E08191DF0111979B01042E02C0EF
:1020E000369527950A94E2F7217021952827292310
:1020F00028272C934F5F5F4F4430510559F70895BF
:10210000A82FA77023E0969587952A95E1F7880F69
:10211000991F880F991FFB01E80FF91F50E040E05D
:1021200080E0219130E00A2E02C0369527950A946E
:10213000E2F721703327042E01C0220F0A94EAF738
:10214000822B4F5F5F4F4430510559F70895262F7A
:10215000953070F48E3060F4682F70E08EE0989FB8
:10216000600D711D112448ED52E0822F0E94531022
:102170000895292F953068F48E3058F490E068ED7A
:1021800072E03EE0239F800D911D11240E9480107B
:10219000089580E00895B0E0A0E0E1EDF0E10C9456
:1021A000452E7C010091FC021091FD028091FE02FF
:1021B0009091FF02082B192BCFE0D0E0CC24C394E0
:1021C000D12CBC2EC6010C2E02C0880F991F0A9478
:1021D000E2F780239123892B49F4219790F7B12CC2
:1021E0008B2DCDB7DEB7E9E00C94612EB7018C2FB3
:1021F0000E945E18019789F3F3CFCF93DF93EC0130
:102200000E94CB10BE010E945E18DF91CF9108950D
:102210001F93CF93DF93EB019091D702992339F06D
:10222000CB010E94FD10DF91CF911F91089588236B
:1022300069F0CB010E94CB10182F682FCE010E94AD
:10224000A710BE01812F0E945E18EDCFCB010E9426
:10225000B910182FF6CF1F93CF93DF93C0910003CF
:1022600017E0809101038C1304C0DF91CF911F917F
:102270000895D0E01C9FF0011D9FF00D1124EE5F2A
:10228000FC4F208131814281538164817581868137
:102290000E94B30F2196C770E4CF20913A0330918A
:1022A0003B0340913C0350913D0360913E0370918C
:1022B0003F03809140030E94B30F0895CF93DF93B3
:1022C00080914003807F09F04DC080913F038823B7
:1022D00009F448C0E091000350910103C0913B0311
:1022E000D0913A0360913C0370913D0347E05E1743
:1022F000C9F18E2F90E0E49FF0011124EE5FFC4FB6
:102300002481222391F1489FF001499FF00D11246F
:10231000DF01AE5FBC4F11962C9111972C1325C095
:102320002C912D1322C015962C91159721111DC0AB
:1023300012962D913C91261B370B283C3105A8F4B1
:10234000809140038F70806180934003E85FFC4F71
:1023500080818F70806180838AE393E00E94430FC5
:102360000E942B11DF91CF910895FC013196E77007
:10237000BECF482F209100039091010357E029130D
:1023800002C080E0089530E0529FF001539FF00DAD
:102390001124EE5FFC4F8181681306C080814813D1
:1023A00003C085818111EECF2F5F3F4F2770E7CFAC
:1023B000A4E1B0E0EEEDF1E10C94422E8C0186E058
:1023C000F801DE011F9601900D928A95E1F7F80160
:1023D0008481E5809AE3A92E93E0B92E90913E0383
:1023E00091111FC08823D1F0EE20A9F0C8010E94EE
:1023F0009C0FF82E882379F087E0F801D501019031
:102400000D928A95E1F7C5010E94710C0E945E1140
:102410000E944D115FC0C8010E94430FFF24F39436
:1024200059C0C080D18082809380F0903F0320917A
:102430003C0330913D03A401421B530BFF2009F4E0
:10244000F9C0483C510508F0A7C0882309F442C0F0
:1024500090913B0380914003282F207F09F05CC0BE
:102460009D1116C090913A03C91212C0E1104EC0DE
:102470008F708061809340030E944D118AE393E046
:102480000E94430F80914003F8018683F12C22C003
:10249000E1103CC06D2D8C2D0E94B9116D2D8C2D3D
:1024A0000E94B911E82E8111F1CFCF86D88A8F858D
:1024B00098890E94FD10292F22952F70243078F4DE
:1024C0009F702230A8F09923B9F0F8019681907F8F
:1024D00099F4FE2C8F2D6496ECE00C945E2E2A5F0E
:1024E0002F70223068F0C8010E94430FEF2CF1CF0B
:1024F000992311F0882369F3805E883050F3F3CF7D
:10250000803F38F3815F833070F7E3CF80914003E1
:10251000816080934003BACF9D1113C090913A031C
:10252000C9120FC0E1100DC08683C8010E94430F7D
:1025300087E0F801AAE3B3E001900D928A95E1F7F4
:1025400067CFC8010E949C0F882309F464CFEE2056
:1025500009F461CF80914003803288F020913A03E2
:1025600030913B03398728879B868A8690913E036A
:102570009C871D868E87CE0108960E94430F87E0B8
:10258000F801AAE3B3E001900D928A95E1F70E9469
:102590005E110E944D1142CF90914003292F207F60
:1025A000A1F4682D9A8A898AA6017A899E2D0E94B3
:1025B000A90F8AE393E00E94430F87E0F50111928F
:1025C0008A95E9F70E944D1161CF882309F482CFE3
:1025D00080913B038D1110C080913A03C8120CC04A
:1025E000E1100AC09683C8010E94430F87E0F501FD
:1025F00011928A95E9F76ECFC8010E949C0F88233B
:1026000009F409CFEE2009F406CF8091400380320F
:1026100008F4B5CF20913A0330913B033A832983E4
:102620009C828B8290913E039D831E828F83CE017C
:102630000196A3CF483C5105B8F5882309F4EECEA6
:10264000FE2CEE2009F4E7CE80913B038D111EC0D5
:1026500080913A03C8121AC08091400380FD0DC0DA
:10266000982F907F51F08683903F09F45ECF982F8A
:10267000907F905F8F70892B57CF87E0F801AAE396
:10268000B3E001900D928A95E1F724CFC8010E9432
:102690009C0F811174CF809140038160809340032F
:1026A000C8010E94430F16CF682D9A8A898AA60115
:1026B0007A899E2D0E94A90F87E0F50111928A95D3
:1026C000E9F7A6CEAEE0B0E0E8E6F3E10C944B2EDD
:1026D000288739874A875B876C877D878E87CE01FD
:1026E00008960E94D8118823B1F06C85662341F0CA
:1026F000288539854A855B857D858E850E94B30F47
:1027000017E0809100039091010389133DC02E963C
:10271000E3E00C94672E87E0FE013896DE01119607
:1027200001900D928A95E1F78C85882349F32091D9
:10273000010330E0C9010196877099274091000399
:102740004817190699F097E0929FD001939FB00D1A
:102750001124AE5FBC4FFE01319601900D929A9507
:10276000E1F7809301030E942B11CACF0E947C0FD6
:10277000109201031092000387E0EAE3F3E0DF0127
:102780001D928A95E9F7BCCF819FC00111248E5F0D
:102790009C4F0E94D811882309F4B9CFE09100031F
:1027A0001E9FF0011124EE5FFC4F20813181428198
:1027B00053816481758186810E94B30F80910003EB
:1027C00090E0019687709927809300039ACF0E942A
:1027D0007A2520916C0330916D03821B930B9C0131
:1027E00081E0243F314008F480E0089580916B033C
:1027F000869586958695089580916B0387700895D8
:102800000E947A252091690330916A03821B930B01
:10281000843F914048F080916B0382FB882780F9C8
:1028200091E089278170089580E0FCCF90916B033F
:10283000977081E009F480E00895809199030895EC
:1028400090919903892B8093990308958095909195
:1028500099039823909399030895109299030895EA
:1028600090919803892B8093980308958095909177
:1028700098039823909398030895109298030895CD
:1028800008950E944014089590916E03292F2823E3
:1028900031F08095892380936E030E94411408953E
:1028A00008950E9450140895CF93C82F80916F030C
:1028B0008C238C1771F00E947A2590936D0380937E
:1028C0006C0380916F038C2B80936F038C2F0E947D
:1028D0005114CF91089590916F03292F282381F0EF
:1028E0008095892380936F03882359F00E947A256D
:1028F00090936D0380936C0380916F030E94511439
:10290000089590E080E0F4CF80916F03882349F030
:1029100010926F0310926D0310926C0380E00E947E
:1029200051140895CF93C091990380919803C82BB7
:1029300080916F038823D1F00E94E713882371F000
:102940008091AE0380FF08C08FE999E09F938F9339
:102950000E941C0A0F900F900E94841480916F03B4
:10296000C82B0E94922381110E9484148C2FCF9136
:102970000895CF93DF93C0910201D09103010E948B
:1029800092148883C0910201D091030148E050E085
:1029900061E673E0CE010E94872E892B59F088E012
:1029A000FE01A1E6B3E001900D928A95E1F7CE0118
:1029B0000E949A22DF91CF910895CF93DF93C09127
:1029C0000001D09101010E9492148983C0910001FD
:1029D000D091010140E250E061E473E0CE010E9439
:1029E000872E892B59F080E2FE01A1E4B3E001902B
:1029F0000D928A95E1F7CE010E94E822DF91CF91F6
:102A0000089580911601882339F08091220587FF6F
:102A100003C00E94DD1408950E94B914089508951A
:102A20000E940F1508959091230592FF17C098E01A
:102A3000899F90011124622B60936B030E94051003
:102A40000E947A2590936A038093690380916B03B7
:102A50008695869586950E94101508950E9405100A
:102A6000089510926B0310926A031092690380E03C
:102A70000E941015089590916B038095892380938F
:102A80006B03282F277069F4891759F0909123055B
:102A900092FF07C08695869586950E9415100E9424
:102AA00031150895CF93C82F8091230582FB992774
:102AB00090F99C17E9F0C0FB82F98093230580917F
:102AC0002205909123050E94AD1582E00E943B15DE
:102AD0008091AE0380FF0CC01F92CF9381EB99E0F1
:102AE0009F938F930E941C0A0F900F900F900F904E
:102AF000CF9108958091230582FB882780F991E08A
:102B000089270E945215089581E00E945215089568
:102B100080E00E94521508956FEF7FEF90E080E013
:102B20000E94D92E089590E080E00E94A52E21E019
:102B3000863E9E4F09F020E0822F089582E090E0CB
:102B40000E949D2E089583E090E00E949D2E08959E
:102B500084E090E00E94A52E0895BC0184E090E0FE
:102B60000E94D92E0895AB01BC018FE090E00E9435
:102B7000CD2E0895AB01BC0183E190E00E94CD2EE3
:102B8000089560E070E0CB010E94BA15089560E0FE
:102B900070E0CB010E94B3150E94C1150895A8E012
:102BA000B0E0E5EDF5E10C944C2E66EE7EEF90E0A2
:102BB00080E00E94D92E60E082E090E00E94BB2E6F
:102BC00081E090E09093FF028093FE0261E083E059
:102BD00090E00E94BB2E60E074E184E090E00E94EF
:102BE000D92E60E086E090E00E94BB2E60E087E096
:102BF00090E00E94BB2E40E050E0BA0188E090E0F7
:102C00000E94CD2E60E084E290E00E94BB2E60E046
:102C100087E190E00E94BB2E60E08CE090E00E9493
:102C2000BB2E60E08DE090E00E94BB2E19821A82DC
:102C30001B821C821D821E821F82188648E050E083
:102C400068E170E0CE0101960E94AB2E40E050E0BA
:102C5000BA0180E290E00E94CD2E0E94C71528960E
:102C6000E2E00C94682E0E94CF150895682F8EE044
:102C700090E00E94BB2E0895A6E0B0E0E2E4F6E109
:102C80000C944A2E0E947A258C0180919A0390918F
:102C90009B038017910781F019821A820E947A257E
:102CA000682F49815A81792F80E090E00E94310C91
:102CB00010939B0300939A032696E4E00C94662EEF
:102CC0000E9486256093AA037093AB038093AC03A4
:102CD0009093AD036093A6037093A7038093A8031A
:102CE0009093A9030895089508950E947316089576
:102CF00008950E947816089584E498E20E94431A89
:102D00000E9474160E947516089581E008950E942D
:102D1000851608950E9485160895089508950E94C5
:102D20008D160E948E1608950E949315811102C07F
:102D30000E9433160E949E158093AE030E94A81530
:102D400090932305809322050E94661A0E94A31582
:102D500090E00E94C90F8091FC029091FD020E94B8
:102D6000EA0F08950E9471250E94B0190E949416DE
:102D70000E94F40B0E9479160895A6E0B0E0E3ECFF
:102D8000F6E10C94402E0E94871681110AC00E9421
:102D90003C160E94F2200E94070C2696EEE00C944E
:102DA0005C2E0E94D9192CE9822E23E0922E640118
:102DB00010E0F601E190F1906F01812F0E94591906
:102DC0001F5F153009F44BC0E816F90691F38091A6
:102DD000AE0381FD0E9462190E948A16782E10E0CF
:102DE00066246394812F0E9459197C01F401A190FB
:102DF000B1904F018A159B0561F100E0CC24C3948A
:102E0000D12CAE24BF24C5018C219D21892BC1F07A
:102E10007720B1F009831A830E947A259C838B83E3
:102E20006D8221E0C7018C219D21892B09F420E0CE
:102E300049815A816B817C818D81922F0E94310C56
:102E40000F5FCC0CDD1C0E30F1F6F4013297F182ED
:102E5000E0821F5F153031F60E9460169ACFE816A7
:102E6000F90609F0B4CF93CF1F93CF93DF930E945D
:102E70006318EC01C11580E5D807F0F5C11580E4B1
:102E8000D80708F09CC0C03ED10520F5CD3CD10547
:102E900008F082C0C83AD10578F4C53AD10508F0E7
:102EA00073C0C130D10519F1209709F1C430D105A3
:102EB000F0F4D0E0C0E01BC0C33CD105D0F7C85A45
:102EC000D0E0CC0FDD1FC05BDE4F0990D881C02D54
:102ED000D4640DC0C11580E2D80708F0D1C0C11577
:102EE00081E0D80708F05AC0C83ED10510F7CE01DE
:102EF000DF91CF911F910895C03682E5D80718F56C
:102F0000C03482E5D80708F06BC0C03282E5D8072C
:102F100008F05FC0C11582E5D80708F497C02C2FD0
:102F20002695269580E2289F900111248C2F83708E
:102F3000C1E0D0E002C0CC0FDD1F8A95E2F7C22BC2
:102F4000D32BDD68D4CFC03A82E5D80760F4C0380F
:102F500082E5D80708F459C0CF71D0E0DC2FCC2728
:102F6000C46FD06AC4CFC03C82E5D80708F462C001
:102F7000C03E82E5D80708F09CCFDC2FCC27CC27B9
:102F8000DF71C06FD06AB3CFC55AD0E0CA57DE4FE9
:102F9000C881D0E0D064ABCFD065A9CF8D2F0E947F
:102FA0000519182FCE0199270E946318C12FD0E070
:102FB000DC2FCC27CC27DF71C82BD92B98CFCE01A3
:102FC00099270E946318CC27DF70C82BD92BD06AB1
:102FD0008ECFCF71D0E0DC2FCC27C16FD06A87CFE6
:102FE0002C2F26952695277080E2289F900111248A
:102FF0008C2F8370C1E0D0E002C0CC0FDD1F8A951A
:10300000E2F7C22BD32BDC6872CF2C2F26952695A6
:10301000277080E2289F900111248C2F8370C1E0DB
:10302000D0E002C0CC0FDD1F8A95E2F7C22BD32B74
:10303000DA685DCF8C2F8F710E940519C82FD0E000
:10304000DC2FCC27CC27DF71D06251CF8C2F8F7132
:103050000E94051955E0D695C7955A95E1F7CF70AE
:10306000D0E0DC2FCC27282F30E084FF05C044E0DF
:10307000220F331F4A95E1F7C22BD32BD06937CFEC
:103080008D2F8F710E940519182FCE0199270E944C
:103090006318C12FD0E0DC2FCC27CC27DF71C82BE1
:1030A000D92BD2CF462F753030F46E3020F4672FF5
:1030B0000E94BD0A089590E080E008950E94521891
:1030C0000E943417089582389105B9F1B0F4813324
:1030D000910509F47DC048F48932910509F46DC069
:1030E0008A32910509F47BC008958533910509F46E
:1030F0005FC08933910509F10895833E9105D9F1A7
:1031000038F4803E910529F1823E910579F10895C8
:10311000863E9105D9F1873E910509F43EC0843E73
:10312000910541F52091230521FF24C080912205BE
:1031300084FD19C087EE90E0089520912205237048
:1031400009F05AC02091230523FF14C089E290E0C2
:1031500008952091220520FD38C03091230530FFCD
:1031600009C024FF43C090E080E00895209122052B
:1031700022FDF7CF08952091220522FD3AC030911B
:10318000230530FD39C024FFF5CFEDCF2091220576
:1031900023FFF0CF24FDE7CFCDCF2091220523FDE3
:1031A0002EC03091230531FFEECF84EE90E00895DC
:1031B0002091220525FFDECFC9CF2091220525FDD4
:1031C00021C02091230523FFD5CF89E390E0D2CF02
:1031D0002091220526FFCECF8AE290E0089520912B
:1031E000220526FFC7CF81E390E0089583EE90E0AB
:1031F000089582EE90E0089580EE90E0089586EEC6
:1032000090E0089585E390E008959091220592FF63
:1032100010C041E0282F2471243009F040E031E053
:10322000282F2871283009F030E0431711F02CE0E6
:10323000822793FF10C041E0282F2471243109F028
:1032400040E031E0282F2871283109F030E04317A1
:1032500011F02CE082273091230530FF10C051E09F
:10326000282F2171213009F050E041E0282F2871EA
:10327000283009F040E0541711F029E0822731FF8F
:1032800010C041E0282F2171213109F040E031E0E8
:10329000282F2871283109F030E0431711F029E078
:1032A000822794FD877E0895089508950E945519F8
:1032B0000895E82FF0E0EE0FFF1FE25DFA4F8081E6
:1032C00091810895B0E0A0E0E8E6F9E10C94422E87
:1032D00086ED99E09F938F930E941C0A8EE2E82E60
:1032E00085E0F82E0F900F90912C812C91EDA92E56
:1032F00099E0B92E2EECC22E29E0D22E08EC19E06E
:10330000C6ECD9E09F928F92BF92AF920E941C0AA6
:10331000DF92CF920E941C0AF701819191917F0167
:103320000E94D40B9F938F931F930F930E941C0AAC
:10333000DF93CF930E941C0A9FEF891A990AEDB779
:10334000FEB73C960FB6F894FEBF0FBEEDBFF5E09A
:103350008F169104B9F6CDB7DEB7ECE00C945E2E73
:103360000E94250AA4E2B5E011961C921E92EEE29C
:10337000F5E01182108213961C921E92129713820E
:10338000128215961C921E9214971582148217961B
:103390001C921E9216971782168219961C921E92E4
:1033A00018971186108685E00E94EC190E949C0AED
:1033B0000895CF9384E295E00E942C0A282F45E0DF
:1033C0006EE275E084E295E00E94ED19C82F0E943C
:1033D00056198C2FCF9108950895B0E0A0E0E3EF47
:1033E000F9E10C94462E6C017B01042FC22F22239D
:1033F00079F081E08093B1030E947A259093B00325
:103400008093AF0380E0CDB7DEB7E8E00C94622E86
:10341000D091B103DD23B1F38091AF039091B0035C
:103420000E949225059770F310E0000F111FA8016C
:10343000B601C7010E94872E892B31F0A801B60181
:10344000C7010E94942ECD2F1092B1038C2FDBCF99
:103450000E94C0280E94B2160E94CD2808950E94A2
:10346000D2280E94BD160E94F82808950E941325B4
:103470000E94A6280E947C160E94281A0E942F1AD9
:103480000E948F16FBCF9093D1028093D0020895B3
:103490000E948C15089580E00E945919817008954A
:1034A0000E94D9192FEF86E791E02150804090408B
:1034B000E1F700C000000E94D9190E944B1A88232E
:1034C00021F00E94481A0E94C52508950E94501AB2
:1034D0000895809104011F928F93809105011F929E
:1034E0008F93809108011F928F93809109011F9201
:1034F0008F9380910A011F928F9380910B011F92ED
:103500008F938DEE99E09F938F930E941C0A8DB745
:103510009EB70E960FB6F8949EBF0FBE8DBF08954E
:10352000883248F58E3108F07FC08B3069F130F475
:10353000873009F4E0C08CE49BE0F1C0833109F4EA
:1035400068C08431C1F78EE69BE09F938F930E9401
:103550001C0A0F900F908091B603882309F411C1C3
:103560001092B6031092B5031092B4031092B303F5
:103570001092B20325C08F3409F4D6C008F03FC0C2
:10358000893209F38833B9F681E79BE09F938F93E3
:103590000E941C0A0E94691A1F9281E08F931F9259
:1035A00088E08F938AE69AE09F938F930E941C0A8B
:1035B0008DB79EB708960FB6F8949EBF0FBE8DBF0D
:1035C0002091B603222309F4D3C08091B2039091D5
:1035D000B303009711F489E891E09F938F931F92B2
:1035E0002F938AE39BE09F938F930E941C0A0F9076
:1035F0000F900F900F900F900F9081E008958135FC
:1036000009F4A6C008F4A6C0823509F094CF81E081
:103610008CC080E69BE09F938F930E941C0A0E94BF
:10362000691A0F900F90CCCF8D518093B6038330E1
:1036300009F446C078F48130E1F08230C1F1109293
:10364000B6038DE59BE09F938F930E941C0A0F9019
:103650000F901BC0853009F445C0D8F1863079F74A
:1036600084E091E09093B5038093B40381ED91E001
:1036700008C08BE091E09093B5038093B4038DE88C
:1036800091E09093B3038093B2038091B6038823B3
:1036900009F496CF1F928F9389E59BE09F938F93B8
:1036A0000E941C0A0F900F900F900F9089CF8AE014
:1036B00091E09093B5038093B40386E991E0E1CF64
:1036C00089E091E09093B5038093B40382EA91E09E
:1036D000D8CF88E091E09093B5038093B4038FEA4C
:1036E00091E0CFCF85E091E09093B5038093B40350
:1036F0008EEB91E0C6CF81E080930B0184E1809353
:103700000A018AE0809309018EE18093080188E034
:103710008093050188E2809304018FE49BE09F93EE
:103720008F930E941C0A7DCF8AE0E091B403F09150
:10373000B5033097D1F02081082E000C990B820F31
:10374000911D8F3F910541F03CF08FEF808307C0C2
:103750008FEFEBCF86EFE9CF97FFF8CF1082808114
:103760001F928F9386E49BE099CF83E49BE0D7CFB1
:1037700086E39BE09F938F930E941C0A0F900F900B
:103780003CCF80E00895CF93C82F1F928F9387E896
:103790009BE09F938F930E941C0A81E090E002C0FF
:1037A000880F991FCA95E2F70E94C90F0E947C0FEB
:1037B0000F900F900F900F90CF910895B0E0A0E080
:1037C000E4EEFBE10C94472EEBEFE80FEF3308F04B
:1037D00052C1F0E0E350F14D0C94362E0E94A31537
:1037E0001F928F9387E39FE09F938F930E941C0A01
:1037F0000E949E1583FB992790F91F929F9382FB4D
:10380000992790F91F929F9381FB992790F91F9216
:103810009F93982F91701F929F931F928F938EEE7C
:103820009EE09F938F930E941C0A0E94A81593FB11
:10383000222720F91F922F9387FB222720F91F921E
:103840002F9386FB222720F91F922F9385FB222797
:1038500020F91F922F9384FB222720F91F922F9388
:1038600083FB222720F91F922F9382FB222720F926
:103870001F922F9391FB222720F91F922F93292F1C
:1038800021701F922F9381FB222720F91F922F93E3
:10389000282F21701F922F939F938F938FEE9DE07F
:1038A0009F938F930E941C0A8DB79EB78A960FB67E
:1038B000F8949EBF0FBE8DBF81E02AC087EF9FE0C6
:1038C0009F938F930E941C0A0E9433160F900F90B3
:1038D000F3CF8AE39CE09F938F930E941C0AF6CF5C
:1038E0008091AE03807F8093AE0383E19CE09F9341
:1038F0008F930E941C0A83EF9FE09F938F930E94F7
:103900001C0A81E08093B7030F900F900F900F90E7
:10391000CDB7DEB7E7E00C94632E87ED9FE09F9371
:103920008F930E941C0A0E94390BD0CF9091AE0356
:10393000892F8E7F90FF81608093AE0380FF03C04C
:103940008BEC9FE0C8CF8EEB9FE09F938F930E94FC
:103950001C0A8091AE03817F8093AE03B7CF909114
:10396000AE03892F8D7F91FF82608093AE0381FF2C
:103970000AC081EB9FE09F938F930E941C0A809165
:10398000AE038160E9CF83EA9FE0A5CF9091AE03BB
:10399000892F8B7F92FF84608093AE0382FF03C0E8
:1039A00084E99FE0E8CF84E89FE095CF9091AE0353
:1039B000892F877F93FF88608093AE0383FF03C0C6
:1039C00088E79FE0D8CF8BE69FE085CF86EE91E039
:1039D0009F938F9380E19CE09F938F930E941C0A9A
:1039E0000F900F900F900F9067CF0E948625062FA3
:1039F000F72EE82ED92EC0912205C7FBCC27C0F99F
:103A000010912105D09116010E948D22DF92EF9234
:103A1000FF920F931F92CF931F921F931F92DF93DA
:103A20001F928F938CE89BE09F938F930E941C0AB8
:103A30008DB79EB70E960FB6F8949EBF0FBE8DBF82
:103A40003BCF0E947C0F90912205892F97FB87F92D
:103A500080588093220587FF03C081E69FE03BCF1B
:103A600086E59FE038CF80E00E94C31B25CF8953B5
:103A7000FBCF8D51F9CF84E59FE09F938F930E94F8
:103A80001C0A0F900F9080E043CF80E008950E94C1
:103A9000451D0895CF93C82F8091B7038130C1F0A1
:103AA000882339F0823009F450C01092B70380E0C7
:103AB0000DC00E941D148232D1F78C2F0E94451D2B
:103AC00081111FC08C2F0E94DE1B8170CF91089541
:103AD0000E941D14823289F38C2F0E94471D811190
:103AE00027C0C43139F180F4CB3091F0C03131F1CD
:103AF00081E89BE09F938F930E941C0A0F900F9088
:103B00001BC081E090E0E1CFC932A1F0C83381F75A
:103B100083E19CE09F938F930E941C0A83E89BE0C3
:103B20009F938F930E941C0A0F900F900F900F90FD
:103B300081E0CBCF1092B70380E0C7CF82E08093C3
:103B4000B70388E30E94901AF3CF8C2F0E94901A3B
:103B500081E0BCCFCF93DF93EB0186319C4711F519
:103B60000E941D149D81992399F08A7A91E009F4AD
:103B700090E09093B803811109C089E20E945F240C
:103B80000E94011580E0DF91CF91089585E3F6CF83
:103B90008091B803811104C089E20E947624F0CF9D
:103BA00085E3FBCF81E0EFCFCF93DF93EC01FB0107
:103BB0008581882309F4D2C09E0130572332310514
:103BC00008F0B2C00E94A8159093230580932205A7
:103BD000FE01E150F047E232F10520F4E45CF04DE3
:103BE0000C94362E8091220581608093220593C02B
:103BF000809123058860809323058DC080912205E4
:103C00008260F3CF809122058460EFCF80912205FE
:103C10008860EBCF809123058160EDCF80912305F3
:103C20008260E9CF809122058061DFCF80912205FB
:103C30008062DBCF809122058064D7CF0E947C0F09
:103C4000809122058068D1CF809122058C60CDCFF4
:103C5000809123058360CFCF809122058E7FC5CFD1
:103C600080912305877FC7CF809122058D7FBDCFAF
:103C7000809122058B7FB9CF80912205877FB5CFB8
:103C8000809123058E7FB7CF809123058D7FB3CFA1
:103C9000809122058F7EA9CF809122058F7DA5CFAF
:103CA000809122058F7BA1CF0E947C0F80912205FD
:103CB0008F779BCF80912205837F97CF80912305BB
:103CC0008C7F99CF8091220582FB992790F921E082
:103CD000922790FB82F990FB83F987CF809123058F
:103CE000982F909591708E7F892B90FB81F983CFCF
:103CF00090912205892F8F7B96FF806476CF0E945A
:103D00007C0F90912205892F97FB87F980586DCF02
:103D100081E00E94361680912205909123050E9431
:103D2000AD150E947C0F80E0DF91CF91089580E077
:103D3000F0CF90912205892F8F7E94FF806155CF1F
:103D400090912205892F8E7F90FF81604ECF9091B8
:103D50002305892F877F93FF88604DCF81E0E4CFD3
:103D6000282F35EB2303C001112497FF04C080588E
:103D70009109892F089580589F4FFBCF8091BF03F1
:103D800080FF0DC06091090170E0660F771F6038F9
:103D9000710570F56115710569F1862F089581FF30
:103DA00007C06091090184E0689FB0011124EFCF42
:103DB0006091090182FD0AC08091BE038823A9F0A9
:103DC0002091080160910901821710F088E0ECCF82
:103DD000869FC001112433E0880F991F3A95E1F7BF
:103DE000622F70E00E94002ED2CF68E070E0D5CF45
:103DF0008FE7089581E008958091BF0380FF0CC094
:103E00006091050170E075956795759567956115E9
:103E1000710549F1862F089581FF06C06091050163
:103E200070E075956795F3CF6091050182FD0BC039
:103E30009091BD039923A1F0609104018091050147
:103E4000961738F0682F70E06038710500F38FE73F
:103E50000895899FC001112470E00E94002EF4CFC4
:103E600061E070E0D7CF81E008959091C203209186
:103E7000C303922B2091C503922B2091C403922B54
:103E800031F098E09093BE0391E09093BD038D3C98
:103E900031F40E94BE1E81958093C30308958E3C29
:103EA00019F40E94BE1EF8CF8F3C31F40E94BE1E52
:103EB00081958093C2030895803D19F40E94BE1E2F
:103EC000F8CF893D29F40E94FC1E8093C403089515
:103ED0008A3D21F40E94FC1E8195F7CF8B3D31F481
:103EE0000E94FC1E81958093C50308958C3D19F4B2
:103EF0000E94FC1EF8CF9FE2980F983070F4815D0D
:103F0000990B21E030E001C0220F8A95EAF78091F9
:103F1000C103822B8093C10308958D3D31F48091BC
:103F2000BF0381608093BF0308958E3D21F480918B
:103F3000BF038260F7CF8F3DB9F78091BF038460E4
:103F4000F1CF4091C2038D3C59F48091C30387FFA8
:103F50000DC01092C30341110BC01092BE0308C0E4
:103F60008E3C81F48091C30318169CF3442381F0A6
:103F70008091C4039091C503892B09F05AC0109217
:103F8000BD0308958F3C49F447FFF0CF1092C20360
:103F90008091C3038111ECCFE0CF803D19F414165A
:103FA000ACF3E4CF9091C403893D29F41916F4F6DB
:103FB0001092C403DBCF8A3D19F497FFD7CFF8CF17
:103FC0009091C5038B3D29F497FFD0CF1092C50384
:103FD000CDCF8C3D19F41916CCF3C8CF9FE2980FC2
:103FE000983090F4815D990B21E030E0B90102C076
:103FF000660F771F8A95E2F7CB0180959091C103F8
:1040000089238093C103B2CF8D3D31F48091BF03EA
:104010008E7F8093BF03AACF8E3D21F48091BF0392
:104020008D7FF7CF8F3D09F0A1CF8091BF038B7FAC
:10403000F0CF08958091AE0383FF96C08FE290E1A8
:104040009F938F930E941C0A8091C1031F928F93AC
:104050008AE290E19F938F930E941C0A88E290E18C
:104060009F938F930E941C0A8091C203282F082ED1
:10407000000C330B3F938F9385E290E19F938F93D6
:104080000E941C0A83E290E19F938F930E941C0A76
:104090008091C303282F082E000C330B3F938F937E
:1040A00080E290E19F938F930E941C0A8EE190E141
:1040B0009F938F930E941C0A8091C403282F082E7F
:1040C000000C330B3F938F938BE190E19F938F9381
:1040D0000E941C0A89E190E19F938F930E941C0A21
:1040E0008091C503282F082E000C330B3F938F932C
:1040F00086E190E19F938F930E941C0A83E190E1F7
:104100009F938F930E941C0A8DB79EB780960FB61F
:10411000F8949EBF0FBE8DBF8091BE031F928F93F8
:1041200080E190E19F938F930E941C0A8EE090E1C2
:104130009F938F930E941C0A8091BF031F928F93BD
:104140008BE090E19F938F930E941C0A88E090E19E
:104150009F938F930E941C0A8DB79EB70C960FB643
:10416000F8949EBF0FBE8DBF0E947A259C0190914E
:10417000C2038091C303982B21F03093BC0320939A
:10418000BB039091C4038091C503982B21F0309319
:10419000BA032093B90380EC93E00E943A23089578
:1041A00086E0E0ECF3E0DF011D928A95E9F71092DA
:1041B000BE031092BD031092BF030895FC018281DB
:1041C00081110EC0838181110BC08481811108C0CF
:1041D00091E08581811101C090E0892F817008955F
:1041E00081E0FCCFA6E0B0E0E8EFF0E20C944B2ECB
:1041F00086E0E0ECF3E0DE01119601900D928A95E5
:10420000E1F71092C2031092C3031092C4031092FC
:10421000C5038B819C81892B89F08091BB03909190
:10422000BC030E949225AC019091BE039923C9F171
:1042300080910A018417150608F440C08D819E8183
:10424000892B91F08091B9039091BA030E94922535
:10425000AC019091BD03992309F46AC080910601D5
:104260008417150608F472C0BE016F5F7F4F80ECA3
:1042700093E00E94A724811105C080EC93E00E9486
:10428000DE2081110E941A2086E0FE013196A0EC0A
:10429000B3E001900D928A95E1F72696E3E00C9445
:1042A000672E20910B018AE0289F9001112424178A
:1042B000350720F69F5F9093BE0302C09F3FD1F762
:1042C0001B81112359F00E94BE1E9FEF11160CF4A2
:1042D00091E0899F802D11248093C2031C811123BA
:1042E00059F00E94BE1E9FEF11160CF491E0899FB9
:1042F000802D11248093C3038091C203882309F485
:104300009DCF1091C303112309F498CF0E94B01ED2
:10431000882351F08093C203812F0E94B01E88230E
:1043200029F08093C3038ACF81E0F4CF81E0F9CFF5
:10433000209107018AE0289F900111242417350756
:1043400008F092CF9F5F9093BD0302C09F3FD1F7CB
:104350001D81112359F00E94FC1E9FEF11160CF4D1
:1043600091E0899F802D11248093C4031E81112325
:1043700059F00E94FC1E9FEF11160CF491E0899FEA
:10438000802D11248093C5038091C403882309F4F0
:104390006BCF1091C503112309F466CF0E94B01EA4
:1043A000882351F08093C403812F0E94B01E88237C
:1043B00029F08093C50358CF81E0F4CF81E0F9CF95
:1043C0000F931F93CF93DF93C42FD22FFC018581CE
:1043D0008823C9F04093C8030E947A259093C703AD
:1043E0008093C60380E28C0F883040F4C77081E070
:1043F00001C0880FCA95EAF70E94260DDF91CF9180
:104400001F910F9108951091C803141332C0809129
:10441000C6039091C7030E949225883C910548F5F8
:10442000C0E2CD0F1D17B9F080E2810F883040F453
:10443000177081E001C0880F1A95EAF70E942D0DD0
:10444000C83048F481E09D2F977001C0880F9A957D
:10445000EAF70E94260D802F0E941D0DC83070F6CD
:10446000D77081E001C0880FDA95EAF70E942D0D20
:10447000C5CF80E28C0F883008F6C77081E001C09C
:10448000880FCA95EAF7F2CF0F93DB0188519C475A
:1044900087309105A0F5FC01E25AF04D0C94362EC0
:1044A00006E221EE41EE6AE17CE7CD010E94E021C7
:1044B00080E00F91089507E225EE45EE6BE17CE781
:1044C000F4CF06E221EE40EE68E17CE7EECF07E2B2
:1044D00025EE44EE69E17CE7E8CF06E221EE42EE0C
:1044E0006CE17CE7E2CF07E225EE46EE6DE17CE78A
:1044F000DCCF08E221E045EE6EE17CE7D6CF1596F1
:104500008C91882319F01092C803D3CF81E0D1CFCA
:104510009093CE038093CD030895E091CD03F09165
:10452000CE03309729F00190F081E02D0995089590
:1045300080E00895EF92FF920F931F93CF93DF9344
:10454000EC01E091CD03F091CE033097E1F10280D0
:10455000F381E02D09958091AE0382FF34C080FF86
:104560000DC088811F928F9387E790E19F938F936F
:104570000E941C0A0F900F900F900F907E0186E012
:10458000E80EF11C01E710E18091AE0380FF0BC043
:104590008A811F928F931F930F930E941C0A0F9082
:1045A0000F900F900F902196CE15DF0569F780913F
:1045B000AE0380FF08C08FE690E19F938F930E9427
:1045C0001C0A0F900F90CDB7DEB7E6E00C94642E76
:1045D000EF92FF920F931F93CF93DF93EC01E09143
:1045E000CD03F091CE03309709F43FC086E0888375
:1045F0000480F581E02DCE0109958091AE0382FF04
:1046000034C080FF0DC089811F928F938AE590E1AD
:104610009F938F930E941C0A0F900F900F900F9002
:104620007E018EE1E80EF11C04E510E18091AE03FD
:1046300080FF0BC08A811F928F931F930F930E945C
:104640001C0A0F900F900F900F902196CE15DF054A
:1046500069F78091AE0380FF08C082E590E19F93E7
:104660008F930E941C0A0F900F90CDB7DEB7E6E043
:104670000C94642EE091CD03F091CE03309739F085
:1046800022E0DC012C930680F781E02D0995089546
:10469000A3E0B0E0EEE4F3E20C944C2E2091CB03C7
:1046A0003091CC0328173907A1F09093CC03809365
:1046B000CB03E091CD03F091CE03309751F023E08E
:1046C00029839B838A830084F185E02DCE010196A6
:1046D00009952396E2E00C94682EA3E0B0E0E3E7AE
:1046E000F3E20C944C2E2091C9033091CA03281791
:1046F0003907A1F09093CA038093C903E091CD03D9
:10470000F091CE03309751F024E029839B838A8374
:104710000084F185E02DCE01019609952396E2E013
:104720000C94682E20910201309103012E5F3F4FBF
:1047300080911601882379F08091220587FF0BC0B4
:1047400020910001309101012E5F3F4F9EE180E0FA
:10475000915018F4089596E0FACFF90141919F0124
:104760004423B1F38F5FF4CF882321F19091160198
:10477000992311F19091220597FF1EC0E82FE6952D
:10478000E695E695EE31B0F42091000130910101FB
:10479000E20FF32FF11D228130E0877041E050E0FD
:1047A00002C0440F551F8A95E2F72423352381E088
:1047B000232B91F480E008952091020130910301B0
:1047C000F9013296285F3F4F9191981721F0E21737
:1047D000F307D1F7EFCF81E008959C01FC013296F9
:1047E0009FEF80E04191461751F09F3F19F441112E
:1047F00001C0982F8F5F8630A9F79F3F09F4089575
:10480000290F311D97FD3A95F90162830895FC0146
:10481000329608962191261303C0DF0111971C924E
:10482000E817F907B9F70895E62FE695E695E695B6
:10483000EE3170F4E80FF92FF11D677021E030E0E0
:1048400001C0220F6A95EAF78281822B8283089544
:104850008091AE0380FF0CC01F926F938EEA90E1AF
:104860009F938F930E941C0A0F900F900F900F90B0
:104870000895E62FE695E695E695EE3178F4E80F93
:10488000F92FF11D677021E030E001C0220F6A9519
:10489000EAF7209582812823228308958091AE0330
:1048A00080FF0CC01F926F9380E990E19F938F93DC
:1048B0000E941C0A0F900F900F900F900895682F80
:1048C00080911601882359F08091220587FF07C047
:1048D00080910001909101010E941424089580911B
:1048E0000201909103010E94ED230895682F8091A9
:1048F0001601882359F08091220587FF07C0809117
:104900000001909101010E943924089580910201D3
:10491000909103010E940724089580911601882335
:1049200079F08091220587FF0BC0E0910001F091A2
:10493000010132968EE1DF011D928A95E9F7089513
:10494000E0910201F0910301329686E0F4CFDC01A0
:10495000FB0111969C9111978181981322C01296A8
:104960008C911297882319F0928189131AC013969B
:104970008C911397882319F09381891312C015968F
:104980008C911597882319F0958189130AC0149684
:104990009C91992321F081E02481291303C080E0B8
:1049A00001C081E08170089508950E94D424089583
:1049B000811106C081E08093CF030E94D524089521
:1049C00082E0F9CF83E08093CF030E94D52408953D
:1049D0000E94D824089581E08093CF030E94D524BB
:1049E00008950E94EB240895089508950E94F524E7
:1049F0000895089508950E94F4240895CF930E9485
:104A0000F9240E94D9190E94FA24C0E08C2F0E9438
:104A10005919892B31F4CF5FC530C1F780E0CF91B0
:104A2000089581E0FCCF85B7806885BF85B7806831
:104A300085BF08951F921FB61F9211248F939F93D5
:104A4000AF93BF938091D003811113C0809138053B
:104A500090913905A0913A05B0913B054196A11D71
:104A6000B11D8093380590933905A0933A05B09312
:104A70003B05BF91AF919F918F911F901FBE1F90DB
:104A8000189580914005843031F10E94B20B10924C
:104A9000D00388E190E020E40FB6F894A8958093C5
:104AA00060000FBE2093600083B7817F846083BF66
:104AB00083B7816083BF7894889583B78E7F83BFE7
:104AC0000FB6F894A895809160008861809360008B
:104AD000109260000FBE08950E947C0F0E94B70BD9
:104AE000089582E084BD93E095BD9AEF97BD8093D1
:104AF0006E0008952FB7F89480913805909139058C
:104B0000A0913A05B0913B052FBF08952FB7F894B7
:104B1000609138057091390580913A0590913B0577
:104B20002FBF08959C014FB7F8948091380590915C
:104B30003905A0913A05B0913B054FBF821B930BFD
:104B4000089578941F921FB61F9211248F939F93FC
:104B5000AF93BF938091380590913905A0913A05A4
:104B6000B0913B050196A11DB11D8093380590932E
:104B70003905A0933A05B0933B05BF91AF919F9142
:104B80008F911F901FBE1F90189587E797E790930E
:104B900001088093000888E19AE00FB6F894A89580
:104BA000809360000FBE90936000FFCF88E19AE091
:104BB0000FB6F894A895809360000FBE90936000A4
:104BC000FFCF9B01AC01F89460E079E08DE390E0C9
:104BD0000E94142E215031094109510956954795DB
:104BE000379527952093CC0082E08093C80088E910
:104BF0008093C90086E08093CA001092130410923B
:104C000014041092D1031092D203789408959091D5
:104C100014049F5F20911304291303C00FB607FEED
:104C20000EC0209113042917E1F3E92FF0E0EB5EA9
:104C3000FB4F80839093140488EB8093C900089500
:104C40009091D2038091D1039817D1F39091D10321
:104C50009F5F903408F090E0E92FF0E0ED52FC4FB8
:104C600080819093D10308955091D2034091D10354
:104C7000852F90E0242F30E0541748F0AC01421B00
:104C8000530B81E0141615060CF080E00895805C4B
:104C90009F4FF4CF8F938FB78F939F93EF93FF9393
:104CA000909114048091130498130AC088E98093AA
:104CB000C900FF91EF919F918F918FBF8F911895B0
:104CC000809113048F5FE82FF0E0EB5EFB4F908143
:104CD0009093CE0080931304ECCF2F932FB72F9394
:104CE0008F939F93EF93FF939091CE008091D20387
:104CF0008F5F803408F080E02091D103281739F0CD
:104D0000E82FF0E0ED52FC4F90838093D203FF91A7
:104D1000EF919F918F912F912FBF2F911895809197
:104D2000200508959B01BA01909140059430E9F463
:104D30008F708093E9009FEF8091E800915085FD8E
:104D400006C085ED8A95F1F700009111F5CF8091AD
:104D5000E80085FF0AC050E040E0C9010E946E29CA
:104D60008091E8008E778093E800089543E050E05A
:104D7000BC0182E00E949226089546E050E0BC010A
:104D800082E00E949226089540E250E0BC0182E059
:104D90000E9492260895CF93DF93EC0148E050E003
:104DA000BC0181E00E94922688E0FE01A8E1B5E006
:104DB00001900D928A95E1F7DF91CF91089582EFEE
:104DC00090E19F938F930E941C0A80913F050F9062
:104DD0000F90811109C00E94FE2A0E945B2B8091D6
:104DE000E20084608093E20008958EEE90E19F934C
:104DF0008F930E941C0A10923F050F900F90089508
:104E00008AEE90E19F938F930E941C0A0E94EB24EC
:104E10000F900F90089586EE90E19F938F930E94DC
:104E20001C0A60913C0581E0611101C080E00E9494
:104E3000E2240F900F90089582EE90E19F938F935C
:104E40000E941C0A9091400581E0943009F080E0B6
:104E500060913C050E94E8240F900F9008952091E6
:104E600016052F5F822F62E30E94F42D992319F01B
:104E70002093160508951092160580911705882332
:104E8000F1F0809140058430C1F49091E9009F7069
:104E90002091EC00822F817020FD80E8892B93E027
:104EA0009093E9009091EB0090FF04C09091EE0088
:104EB00097FD08C08F708093E90010921705089540
:104EC0001092F1009091E80095FDFACF9091E800E2
:104ED00090FFF0CF9091E8009E779093E800EACFA2
:104EE00042E061EC81E00E947A2A42E261EC82E0D9
:104EF0000E947A2A42E261EC83E00E947A2A909131
:104F0000400581E0943009F080E060913C050E940A
:104F1000D824089580914205833009F461C030F4AB
:104F20008130D1F1823009F49EC008958A3009F4AD
:104F30008AC08B3009F46FC0893009F050C080916D
:104F40004105813209F04BC080914505909146059D
:104F5000029708F044C08091E800877F8093E800C2
:104F60008091E80082FF37C09091F3008091F200B9
:104F7000029731F48091F100813011F0863021F4F4
:104F80008091F100809320058091E8008B778093D9
:104F9000E8000E94AE2A23C080914105813AF9F4CD
:104FA0008091E800877F8093E8008091450590918B
:104FB0004605892B61F468E088E195E070E00E9485
:104FC000BD298091E8008B778093E800089560E028
:104FD00090E080E0F3CF809140058111C1CF08952A
:104FE00080914105813AD9F7809145059091460518
:104FF000892BA9F78091E800877F8093E800809152
:10500000E80080FFFCCF809116018093F100809131
:10501000E8008E77BCCF80914105813201F7809105
:10502000450590914605892BD1F68091E800877F50
:105030008093E8000E94AE2A809143058093160178
:105040000E947C0F089580914105813241F6809144
:10505000E800877F8093E8000E94AE2A8091440593
:1050600080932105089580914105813A09F0B7CFD9
:105070008091E800877F8093E8008091E80080FFBE
:10508000FCCF80912105C1CF9FB7F89410921705EE
:105090009FBF90914005943009F048C02091E900ED
:1050A0002F703091EC00932F917030FD90E8922B8F
:1050B00023E02093E9002091EB0020FF34C02091F1
:1050C000EE0027FF30C020911505222321F020910A
:1050D000E80025FF28C01092150526E03091E80071
:1050E00035FF14C08093F1008091E80085FD27C052
:1050F0008091E80080FFFCCF8091E8008E7780935C
:10510000E8009F709093E90080E008953091400599
:10511000343049F43091EB0035FD05C0215041F4A5
:1051200081E0809315059F709093E9008FEF0895BB
:10513000EFE9FFE03197F1F700C00000CFCF8FB764
:10514000F89421E0209317058FBFDBCF84B7877FCA
:1051500084BF0FB6F894A895809160008861809311
:105160006000109260000FBE80E890E00FB6F894E7
:1051700080936100909361000FBE0E94F124089516
:105180000E94FE2A0E945B2BE2EEF0E080818460A8
:10519000808378940E94D92D08958CE091E00E943C
:1051A0008822089580914005853091F48091AE0366
:1051B00080FF08C08CEC90E19F938F930E941C0AA3
:1051C0000F900F9080914005853019F00E946C255A
:1051D00008950E94412580913E05882399F30E94FD
:1051E000FE24882379F30E9458290E947C0FEACF7D
:1051F00008959A0140914705509148050E94012960
:105200000895492F55274330510521F168F4413065
:10521000510509F443C04230510509F444C090E0FF
:1052200080E050E040E026C04132510551F1423269
:105230005105A9F76330710590F7FB01EE0FFF1FD1
:10524000EC53FD4F408151816F537D4FFB018081B5
:1052500090E010C099278130910581F0009729F0E6
:105260000297E9F6E6EFF0E102C0E6E3F1E18491AE
:1052700090E0AF01F901518340830895E6E1F1E147
:10528000F6CF6330710558F6660F771FFB01E653C2
:10529000FD4F4081518189E090E0ECCF82E190E0C8
:1052A0004EE851E1E7CF84E590E04AE351E1E2CFF7
:1052B00080E189BD82E189BD09B400FEFDCF809106
:1052C000D8008F7D8093D8008091E0008260809329
:1052D000E0008091E00081FDFCCF0895AF92BF9285
:1052E000CF92DF92FF920F931F93CF93DF936C01C6
:1052F000EB018A010E94CD2AF82E811123C00115ED
:10530000110539F0F80180819181C81BD90BC80EB5
:10531000D91EB12CA12C2097A9F08091E80085FD21
:1053200022C08091E8008E778093E8000115110576
:10533000A1F0F80180819181A80EB91EB182A082EE
:1053400085E0F82E8F2DDF91CF911F910F91FF9067
:10535000DF90CF90BF90AF9008950E94CD2A882310
:10536000D1F2F82EEFCFF60181916F018093F10019
:105370002197FFEFAF1ABF0ACECFFC0180914705FE
:105380009091480586179707A0F06115710529F4DB
:105390009091E8009E779093E80090E06115710588
:1053A00051F4911108C08091E80082FF34C080E080
:1053B0000895BC01F2CF809140058823C1F185306A
:1053C000C1F18091E80083FD30C08091E80082FD4A
:1053D000EACF8091E80080FFE1CF8091F300209137
:1053E000F200382F6115710519F02830310558F099
:1053F00091E02830310509F090E02091E8002E7707
:105400002093E800CBCF81918093F1006150710926
:105410002F5F3F4FE7CF80914005882341F08530D3
:1054200041F08091E80083FFBECF81E0089582E0E3
:10543000089583E00895FC01809147059091480507
:1054400086179707A0F06115710529F48091E8008F
:105450008E778093E80090E06115710551F4911109
:1054600008C08091E80082FF35C080E00895BC014B
:10547000F2CF809140058823C9F18530C9F1809130
:10548000E80083FD31C08091E80082FDEACF809181
:10549000E80080FFE1CF8091F3002091F200382FE7
:1054A0006115710519F02830310558F091E0283068
:1054B000310509F090E08091E8008E778093E80054
:1054C000CBCF84918093F1003196615071092F5FA9
:1054D0003F4FE6CF80914005882341F0853041F071
:1054E0008091E80083FFBDCF81E0089582E00895B8
:1054F00083E00895982F973028F08F708093E9000B
:1055000081E008959093E900242F762F50E09817BA
:1055100031F07091EC002091ED005091F00021FDF0
:1055200002C09F5FE8CF3091EB003E7F3093EB00ED
:105530003091ED003D7F3093ED003091EB00316014
:105540003093EB007093EC002093ED005093F0004B
:105550002091EE0027FDE5CF80E008958091410580
:1055600087FF13C08091E80082FF06C08091E800A9
:105570008B778093E80004C0809140058111F2CFC1
:105580000895809140058823D9F38091E80080FF39
:10559000F8CF8091E8008E77ECCF2091E400309135
:1055A000E50095E6A9012091EC00822F817020FF93
:1055B00006C08091E80080FF06C080E00895209139
:1055C000E80022FD1AC080914005882389F08530CB
:1055D00089F08091EB0085FD0FC02091E4003091AF
:1055E000E50042175307F9F29150E1F684E008957F
:1055F00082E0089583E0089581E008950E946D2B74
:105600000E94752BE0EEF0E0808181608083E8ED00
:10561000F0E080818F77808319BCA7EDB0E08C919A
:105620008E7F8C9380818F7E808310923F050895BA
:105630000F931F93CF93DF930E946D2B0E94752BC6
:10564000C8EDD0E088818F778883888180688883DF
:1056500088818F7D888319BC1092400510923C058B
:1056600010923E0510923D0500EE10E0F801808199
:105670008B7F808388818160888342E060E080E066
:105680000E947A2AE1EEF0E080818E7F8083E2EE54
:10569000F0E0808181608083808188608083F80170
:1056A00080818E7F8083888180618883DF91CF9124
:1056B0001F910F910895E8EDF0E080818F7E808347
:1056C000E7EDF0E080818160808384E082BF81E04B
:1056D00080933F050E94182B0895E8EDF0E080814B
:1056E0008E7F80831092E20008951092DA0010926B
:1056F000E10008951F920F920FB60F9211242F937D
:105700003F934F935F936F937F938F939F93AF9349
:10571000BF93EF93FF938091E10082FF0BC08091D4
:10572000E20082FF07C08091E1008B7F8093E1005F
:105730000E942F278091DA0080FF19C08091D80045
:1057400080FF15C08091DA008E7F8093DA0080910F
:10575000D90080FF96C080E189BD82E189BD09B48E
:1057600000FEFDCF81E0809340050E94DF268091FE
:10577000E10080FF19C08091E20080FF15C0809198
:10578000E2008E7F8093E2008091E200806180934E
:10579000E2008091D80080628093D80019BC85E037
:1057A000809340050E940B278091E10084FF2BC06D
:1057B0008091E20084FF27C080E189BD82E189BD3C
:1057C00089B5982F917080FFFBCF8091D8008F7D95
:1057D0008093D8008091E1008F7E8093E1008091DA
:1057E000E2008F7E8093E2008091E20081608093EE
:1057F000E20080913C05882309F449C084E080934D
:1058000040050E941C278091E10083FF29C0809100
:10581000E20083FF25C08091E100877F8093E10053
:1058200082E08093400510923C058091E1008E7FDC
:105830008093E1008091E2008E7F8093E20080916E
:10584000E20080618093E20042E060E080E00E943C
:105850007A2A8091F00088608093F0000E940027EF
:10586000FF91EF91BF91AF919F918F917F916F9138
:105870005F914F913F912F910F900FBE0F901F900E
:10588000189519BC109240050E94F52670CF8091A2
:10589000E30087FD93E090934005B3CF1F920F92F2
:1058A0000FB60F9211242F933F934F935F936F93F3
:1058B0007F938F939F93AF93BF93CF93DF93EF9398
:1058C000FF93D091E900DF708091EC00C82FC17088
:1058D00080FDC0E81092E9008091F000877F8093FE
:1058E000F00078940E94922C1092E9008091F000D0
:1058F00088608093F000CD2BCF70C093E900FF91BA
:10590000EF91DF91CF91BF91AF919F918F917F9157
:105910006F915F914F913F912F910F900FBE0F901C
:105920001F901895AAE2B0E0E8E9FCE20C944B2E37
:1059300081E495E02091F100FC012193CF01F5E095
:1059400089349F07B9F70E948A278091E80083FF76
:105950001EC180914105909142059A3008F017C10F
:10596000E92FF0E0EB59F04D0C94362E803899F089
:10597000823809F00CC1809145058F70873008F09E
:1059800006C18093E9008091EB0085FB882780F9B0
:105990001092E90006C080913D0590913E0591115D
:1059A00082609091E800977F9093E8008093F100E7
:1059B0001092F1008091E8008E77E5C0882309F409
:1059C000D3C0823009F0E3C0809143058111D6C075
:1059D000809145058F702FEF280F263008F0D7C033
:1059E0008093E9002091EB0020FFC8C0933031F490
:1059F0008091EB0080628093EB00C0C09091EB003F
:105A000090619093EB0021E030E001C0220F8A9575
:105A1000EAF72093EA001092EA008091EB00886098
:105A2000EACF8111B4C0109143051F778091E30044
:105A30008078812B8093E3008091E800877F8093BA
:105A4000E8000E94AE2A8091E80080FFFCCF8091A0
:105A5000E30080688093E30082E0111183E080938B
:105A6000400595C08058823008F091C08091430570
:105A7000909144058C3D23E09207A1F583E08A8351
:105A80008AE289834FB7F894DE01139620E03EE066
:105A900051E2E32FF0E050935700E49120FF03C060
:105AA000E295EF703F5FEF708E2F90E0EA30C0F02C
:105AB000C7968D939D932F5F243159F74FBF8091E7
:105AC000E800877F8093E8006AE270E0CE010196EB
:105AD0000E94BD298091E8008B778093E80057C031
:105AE000C096E7CF6091450570914605AE014F5FC6
:105AF0005F4F0E94F928BC01892B09F448C090919E
:105B0000E800977F9093E80089819A810E941B2A80
:105B1000E1CF8038E1F58091E800877F8093E8004D
:105B200080913C058093F10045CF811130C0909168
:105B30004305923060F58091E800877F8093E8000C
:105B400090933C050E94AE2A80913C05882311F079
:105B500084E005C08091E30087FDFACF81E0809367
:105B600040050E94702713C080914305813079F46D
:105B700081E0933009F080E080933E051092E900C7
:105B80008091E800877F8093E8000E94AE2A809190
:105B9000E80083FF0AC08091E800877F8093E800D7
:105BA0008091EB0080628093EB00AA96E3E00C9476
:105BB000672ECF93809140058823A1F0C091E90022
:105BC000CF709091EC00892F817090FD80E8C82BF8
:105BD0001092E9008091E80083FD0E94922CCF7022
:105BE000C093E900CF910895991B79E004C0991FF3
:105BF000961708F0961B881F7A95C9F78095089527
:105C000097FB072E16F4009407D077FD09D00E9469
:105C1000732E07FC05D03EF4909581959F4F089513
:105C2000709561957F4F0895A1E21A2EAA1BBB1BA8
:105C3000FD010DC0AA1FBB1FEE1FFF1FA217B30758
:105C4000E407F50720F0A21BB30BE40BF50B661F6E
:105C5000771F881F991F1A9469F760957095809532
:105C600090959B01AC01BD01CF010895EE0FFF1F80
:105C70000590F491E02D09942F923F924F925F92FC
:105C80006F927F928F929F92AF92BF92CF92DF924C
:105C9000EF92FF920F931F93CF93DF93CDB7DEB7B1
:105CA000CA1BDB0B0FB6F894DEBF0FBECDBF099445
:105CB0002A88398848885F846E847D848C849B849C
:105CC000AA84B984C884DF80EE80FD800C811B81AA
:105CD000AA81B981CE0FD11D0FB6F894DEBF0FBED9
:105CE000CDBFED010895AA1BBB1B51E107C0AA1F40
:105CF000BB1FA617B70710F0A61BB70B881F991F6D
:105D00005A95A9F780959095BC01CD010895FB01A6
:105D1000DC0104C08D910190801921F44150504064
:105D2000C8F7881B990B0895FB01DC0102C00190A4
:105D30000D9241505040D8F70895F999FECF92BD89
:105D400081BDF89A992780B50895A8E1B0E042E0B6
:105D500050E00C94E12EDC01A40FB51F41505040DF
:105D600048F0CB01840F951F2E910E94BC2E41500C
:105D70005040D0F70895262FF999FECF92BD81BDEE
:105D8000F89A019700B4021639F01FBA20BD0FB679
:105D9000F894FA9AF99A0FBE08950396272F0E9455
:105DA000BC2E0E94BB2E252F0E94BC2E242F0C94AB
:105DB000BC2E0196272F0E94BC2E0C94BB2EDC011A
:105DC000CB01FC01F999FECF06C0F2BDE1BDF89A06
:105DD000319600B40D9241505040B8F70895F894B0
:105DE000FFCF750D750DC50DC50D2A0E460EA40D00
:105DF000A40D4B0EBC0ECB0ECB0E8D1C701C961C36
:105E0000EE1B3B1D3B1D691C3B1D3B1DC61C3B1D6A
:105E1000D61C211D3B1D3B1D3B1D3B1DF51C3B1D89
:105E20003B1DE61C3B1DAF1C3B1D3B1D391D391D99
:105E3000391D391D391D391D391D391D391D331DB8
:105E40003B1D8D1C5E1C3B1D3B1D3B1D3B1D3B1D1F
:105E50003B1D3B1D3B1D3B1D3B1D331D3B1D3B1D8A
:105E6000691C3B1D371D371D371D371D371D371D5D
:105E7000371D371D371D331D2C1EA01E341EFE1D61
:105E8000021E381E061E3C1E481E121E991E161E9D
